:100000000C946A130C949B130C949B130C949B13E9
:100010000C949B130C949B130C949B130C949B13A8
:100020000C949B130C949B130C949B130C949B1398
:100030000C949B130C949B130C949B130C949B1388
:100040000C949B130C94B35B0C949B130C949B1318
:100050000C949B130C949B130C948BA90C94ED8221
:100060000C949B130C9445980C949B130C949B1329
:100070000C949B130C949B130C949B130C949B1348
:100080000C94C0630C949B130C949B130C949B13C3
:100090000C949B130C949B130C949B130C949B1328
:1000A0000C949B130C949B130C9492630C949B13D1
:1000B0000C949B130C949B130C949B130C946463EF
:1000C0000C949B130C949B130C949B130C949B13F8
:1000D0000C949B130C949B130C949B130C949B13E8
:1000E0000C949B13E749EA49D949DD49E349214A80
:1000F000EE49F249F849FC49004A064A0A4A0E4AC2
:10010000214A144A184A1C4A09820E8213821D820F
:100110002782A0823182398241824B8255825F825E
:100120006E827882A08282828C829682E9A9F9A965
:1001300018AA28AA43AA48AA4BAA50AA53AA58AA5E
:100140005BAA60AA6AAA084AD73B3BCE016E84BC70
:10015000BFFDC12F3D6C74319ABD56833DDA3D0021
:10016000C77F11BED9E4BB4C3E916BAAAABE00006A
:1001700000803F05A84CCDB2D44EB93836A9020C48
:1001800050B9918688083CA6AAAA2ABE0000008021
:100190003F004C4556454C494E4700434F4D4D5549
:1001A0004E49434154494F4E0044525952554E0016
:1001B0004552524F525300494E464F004543484F17
:1001C00000536C6565702E2E2E00454E4453544FDF
:1001D00050535F4F4E4C595F464F525F484F4D4909
:1001E0004E4720656E61626C655F656E6473746F07
:1001F00070732866616C736529005A2070726F6293
:1002000065206F75742E20626564005A2070726FCD
:100210006265206F75742E206265640053442070FF
:1002200072696E74696E67206279746520004E6F22
:1002300074205344207072696E74696E670025697A
:10024000206D696E2C202569207365630048656107
:1002500074696E672E2E2E00BC01B701B001A90192
:100260009B0192016F66660044454255473A004B38
:10027000494C4C45442E20004D3131332053006F02
:100280006B0048656174696E6720646F6E652E004F
:100290003F0020573A0048656174696E672E2E2E24
:1002A0000042656420646F6E652E003F0020573A5F
:1002B000004265642048656174696E672E007A5F4C
:1002C0006D696E3A2000795F6D696E3A2000785F43
:1002D0006D696E3A20004D31343520533C696E64AF
:1002E00065783E206F7574206F662072616E676559
:1002F0002028302D31290053657474696E672054AD
:10030000726176656C20416363656C6572617469C6
:100310006F6E3A200053657474696E67205265747D
:100320007261637420416363656C65726174696FA7
:100330006E3A200053657474696E67205072696E5E
:100340007420416363656C65726174696F6E3A20F5
:100350000053657474696E67205072696E74206111
:100360006E642054726176656C20416363656C65D0
:10037000726174696F6E3A20003A20007A5F6D6195
:10038000783A20007A5F6D696E3A20002B2F2D207D
:100390005A204F6666736574006F6B00576169740D
:1003A00020666F7220757365722E2E2E0043686171
:1003B0006E67652066696C616D656E74004D3630E0
:1003C0003020486F74656E6420746F6F20636F6CAB
:1003D0006420746F206368616E67652066696C6174
:1003E0006D656E74004D363030004D363030002271
:1003F0000A00556E6B6E6F776E20636F6D6D616E68
:10040000643A2022003C3C3C2070726F62655F7051
:100410007400205A3A200020593A20004265642096
:10042000583A20003E2050726F626553746F7720F7
:100430002873746F775F7A5F70726F626520776977
:100440006C6C20646F205A20526169736529003EEC
:100450002050726F62654465706C6F79002C2000CB
:100460003E20646F5F626C6F636B696E675F6D6F78
:1004700076655F746F5F787920003E20646F5F62FD
:100480006C6F636B696E675F6D6F76655F746F5FCE
:100490007A20005A20526169736520746F207A5F58
:1004A0006265666F72652000003E2050726F626563
:1004B000416374696F6E3A0070726F62655F707449
:1004C000203E3E3E003C3C3C207365745F626564A8
:1004D0005F6C6576656C5F6571756174696F6E5F81
:1004E0006C7371003E3E3E207365745F6265645FAD
:1004F0006C6576656C5F6571756174696F6E5F6C54
:100500007371003E3E3E207365745F6265645F6C8C
:100510006576656C5F6571756174696F6E5F6C732C
:1005200071003C3C3C2067636F64655F4732390073
:10053000473120583935205931302046333030305A
:10054000004731205839352059313020463330307A
:1005500030003E20636F72726563746564205A20B8
:10056000696E20473239003E204146544552206191
:1005700070706C795F726F746174696F6E5F787997
:100580007A203E207A5F746D7020203D20003E204E
:100590004245464F5245206170706C795F726F74AE
:1005A0006174696F6E5F78797A203E207265616C44
:1005B0005F7A203D20003E204245464F5245206153
:1005C00070706C795F726F746174696F6E5F787947
:1005D0007A203E207A5F746D7020203D2000202B11
:1005E00000200A436F72726563746564204265641B
:1005F000204865696768742076732E204265642000
:10060000546F706F6C6F67793A200A00202B0020BE
:1006100028302C30290A002020204F2D2D20465232
:100620004F4E54202D2D2B0A002020207C202020EE
:1006300020202020202020207C0A002020207C2038
:10064000202020282D29202020207C20540A002032
:1006500054207C20202020202020202020207C20AE
:10066000480A002046207C20282D29204E20282BB7
:1006700029207C20470A002045207C2020202020A3
:100680002020202020207C20490A00204C207C2093
:10069000202020282B29202020207C20520A0020E6
:1006A00020207C20202020202020202020207C0AA8
:1006B000002020202B2D2D2D204241434B202D2D7D
:1006C0002B0A00200A426564204865696768742027
:1006D000546F706F6772617068793A200A004D65D7
:1006E000616E206F662073616D706C656420706F41
:1006F000696E74733A200020643A200020623A2028
:100700000045716E20636F656666696369656E7426
:10071000733A20613A20003E2070726F62696E6702
:1007200020636F6D706C657465003E2070203D2005
:10073000003E206379203D20003E206378203D204C
:10074000003E207A203D20003E2076203D20003EC5
:100750002078203D20007A5F6265666F7265203DDB
:1007600020286265666F72652920007A5F6265667F
:100770006F7265203D20286265747765656E29205B
:10078000004146544552206D61747269782E73653C
:10079000745F746F5F6964656E7469747900424553
:1007A000464F5245206D61747269782E7365745F8F
:1007B000746F5F6964656E74697479004245464F71
:1007C0005245206D61747269782E7365745F746F21
:1007D0005F6964656E746974790028422961636B8E
:1007E00000284629726F6E74002852296967687460
:1007F00000284C29656674003F4E756D6265722055
:100800006F662070726F626564202850296F696E70
:10081000747320697320696D706C61757369626CA3
:1008200065202832206D696E696D756D292E0A006C
:1008300052756E6E696E6720696E204452592D5252
:10084000554E206D6F646500473239204175746FD5
:1008500020426564204C6576656C696E670A003FCE
:100860002856296572626F7365204C6576656C2029
:10087000697320696D706C61757369626C6520289D
:10088000302D34292E000067636F64655F4732396D
:10089000203E3E3E006175746F25692E67004D3223
:1008A00034004D32332025730057726974696E67C6
:1008B00020746F2066696C653A20002E0A006F7004
:1008C000656E206661696C65642C2046696C653ACA
:1008D00020002E0A0046696C652073656C656374A0
:1008E0006564002053697A653A200046696C65208A
:1008F0006F70656E65643A20006F70656E2066618A
:10090000696C65642C2046696C653A20006F7065DF
:100910006E206661696C65642C2046696C653A20BE
:10092000004E6F772066726573682066696C653A61
:1009300020004E6F7720646F696E672066696C6572
:100940003A20002220706F73002220706172656E61
:10095000743A2200535542524F5554494E45204354
:10096000414C4C207461726765743A22004B494CCB
:100970004C45442E2000747279696E6720746F2094
:1009800063616C6C207375622D67636F64652066AC
:10099000696C6573207769746820746F6F206D616E
:1009A0006E79206C6576656C732E204D4158206CF5
:1009B0006576656C2069733A0000002100240027E9
:1009C000002A002D0030003300010100000401075F
:1009D000010A0100002200250028002B002E003112
:1009E00000340002010000050108010B0100002095
:1009F000002300260029002C002F003200000100F7
:100A00000003010601090105050505070508080899
:100A100008020202020A0A0808040404040101018F
:100A20000101010101030303030303030304070797
:100A3000070C0C0C0C0C0C0C0C0202020206060635
:100A400006060606060B0B0B0B0B0B0B0B0102101D
:100A500020200808102040102040800201020108D8
:100A60000402010102040810204080804020100888
:100A700004020180040201804020100804020108E1
:100A80000402010102040810204080010204081041
:100A900020408000000A0B02090C0D0E0807030419
:100AA0000100000000000000000000000000000045
:100AB0000000000000000000000000000000001224
:100AC0001110000000000000000000000000000005
:100AD0000000000000000000004B494C4C45442E33
:100AE0002000202D20496E76616C69642065787441
:100AF0007275646572206E756D62657220210020CA
:100B0000536F667477617265205265736574002057
:100B10005761746368646F67205265736574002061
:100B200042726F776E206F75742052657365740022
:100B30002045787465726E616C205265736574002F
:100B4000506F7765725570006572726F72207772A0
:100B50006974696E6720746F2066696C6500456E04
:100B60006473746F707320256320256320256320D0
:100B7000256300205A3A0020593A0020583A00656F
:100B80006E6473746F7073206869743A2000446FE8
:100B90006E6520736176696E672066696C652E00EC
:100BA0004D3239004572726F722077726974696EC6
:100BB0006720746F20454550524F4D2100206279C7
:100BC000746573290053657474696E677320537478
:100BD0006F72656420280020627974657329002093
:100BE00073746F7265642073657474696E677320C3
:100BF0007265747269657665642028004861726464
:100C0000636F6465642044656661756C7420536528
:100C10007474696E6773204C6F616465640053443B
:100C20002063617264206F6B006F70656E526F6F2E
:100C300074206661696C656400766F6C756D652EF5
:100C4000696E6974206661696C6564004572726FD3
:100C5000723A00534420696E6974206661696C00C1
:100C60002200656E7175657565696E672022006585
:100C700063686F3A0024F4D43050C38E20C2A2407F
:100C800017828B7011127A910D816CD90AA861E1DB
:100C900008C7586607615143061E4B5D05C145A74D
:100CA000041A411104093D9803713931034036DBC0
:100CB0000265339102D4305402802E1D02632CEE63
:100CC00001752AC501B028A001102781018F256474
:100CD000012B244B01E0223401AC211F018D200D9A
:100CE00001801FFC00841EED00971DDF00B81CD2A0
:100CF00000E61BC600201BBC00641AB200B219A893
:100D0000000A19A0006A189900D117910040178BAA
:100D100000B516840031167E00B31579003A1573BC
:100D200000C7146F0058146A00EE1366008813633E
:100D30000025135E00C7125B006C12570015125499
:100D400000C111510070114F0021114B00D6104904
:100D5000008D1047004610440002104200C00F40B2
:100D600000800F3E00420F3C00060F3B00CB0E38C8
:100D700000930E37005C0E3500270E3400F30D3261
:100D800000C10D3100900D3000600D2E00320D2D90
:100D900000050D2C00D90C2B00AE0C2900850C2968
:100DA000005C0C2700350C27000E0C2600E80B24F5
:100DB00000C40B2400A00B23007D0B23005A0B2141
:100DC00000390B2100180B2000F80A1F00D90A1E59
:100DD00000BB0A1E009D0A1D00800A1D00630A1C3C
:100DE00000470A1B002C0A1B00110A1A00F7091AF7
:100DF00000DD091900C4091900AB0919009209178F
:100E0000007B091800630917004C09160036091603
:100E100000200916000A091500F5081500E008145D
:100E200000CC081400B8081400A40814009008139B
:100E3000007D0812006B08130058081200460812C3
:100E400000340811002308110012081100010811D4
:100E500000F0071000E0071000D0071000C00710D6
:100E600000B0070F00A107100091070E0083070FC5
:100E70000074070F0065070E0057070E0049070EA4
:100E8000003B070D002E070E0020070D0013070D75
:100E90000006070D00F9060C00ED060D00E0060C3B
:100EA00000D4060C00C8060C00BC060C00B0060CF2
:100EB00000A4060B0099060C008D060B0082060BA1
:100EC0000077060B006C060B0061060A0057060B44
:100ED000004C060A0042060A0038060A002E060ADE
:100EE0000024060A001A060A001006090007060A6E
:100EF00000FD050900F4050900EB050900E20509FC
:100F000000D9050900D0050900C7050900BE05097B
:100F100000B5050800AD050800A50509009C0508F9
:100F200000940508008C050800840508007C05086D
:100F300000740508006C050700650508005D0507DD
:100F400000560508004E0507004705070040050844
:100F50000038050700310507002A050700230507AB
:100F6000001C050600160507000F0507000805060A
:100F70000002050700FB040600F5040700EE040666
:100F800000E8040600E2040700DB040600D50406BE
:100F900000CF040600C9040600C3040600BD040611
:100FA00000B7040600B1040500AC040600A6040660
:100FB00000A00405009B04060095040500900406AB
:100FC000008A04050085040500800406007A0405F3
:100FD0000075040500700405006B04050066040537
:100FE00000610405005C0405005704050052040577
:100FF000004D04050048040500430405003E0404B8
:10100000003A04050035040500300404002C0405F2
:101010000027040400230405001E0404001A04042D
:101020000016040500110404000D04040009040561
:10103000000404040000040400FC030400F803049A
:1010400000F4030400F0030400EC030400E80304CC
:1010500000E4030400E0030400DC030400D80304FC
:1010600000D4030400D0030400CC030400C803032D
:1010700000C503030024F404D9201BC40C5C0E98A3
:1010800004C4095F0265077101F405F900FB04B3AC
:101090000048048700C10369005803550003034555
:1010A00000BE023A008402310053022A00290225C0
:1010B0000004022000E4011C00C8011900AF011760
:1010C00000980114008401130071011000610110E7
:1010D0000051010E0043010D0036010B002B010BE6
:1010E0000020010B00150109000C01090003010893
:1010F00000FB000800F3000800EB000700E4000616
:1011000000DE000600D8000600D2000600CC000574
:1011100000C7000500C2000500BD000400B90004BE
:1011200000B5000400B1000400AD000400A90004F3
:1011300000A5000300A20003009F0004009B000321
:101140000098000300950002009300030090000344
:10115000008D0002008B0003008800020086000260
:101160000084000300810002007F0002007D000275
:10117000007B000200790002007700010076000287
:10118000007400020072000100710002006F000292
:10119000006D0001006C0002006A0001006900029D
:1011A00000670001006600010065000100640002A4
:1011B000006200010061000100600001005F0002A8
:1011C000005D0001005C0001005B0001005A0001AD
:1011D00000590001005800010057000100560001AD
:1011E00000550001005400010053000000530001AD
:1011F000005200010051000100500001004F0001A9
:10120000004E0000004E0001004D0001004C0001A6
:10121000004B0000004B0001004A000100490001A2
:10122000004800000048000100470001004600009F
:101230000046000100450000004500010044000197
:101240000043000000430001004200000042000192
:10125000004100000041000100400001003F00008B
:10126000003F0001003E0000003E0001003D000084
:10127000003D0001003C0000003C0000003C00017B
:10128000003B0000003B0001003A0000003A000172
:10129000003900000039000100380000003800006B
:1012A0000038000100370000003700010036000060
:1012B0000036000000360001003500000035000057
:1012C000003500010034000000340000003400014B
:1012D0000033000000330000003300010032000042
:1012E0000032000000320001003100000031000037
:1012F000003100010030000000300000003000012B
:10130000002F0000002F0000002F0000002F000120
:10131000002E0000002E0000002E0001002D000015
:10132000002D0000002D0000002D0001002C000009
:10133000002C0000002C0000002C0001002B0000FD
:10134000002B0000002B0000002B0001002A0000F1
:10135000002A0000002A0000002A000100290000E5
:1013600000290000002900000029000000290001D8
:1013700000280000002800000028000000280000CD
:1013800000280001002700000027000000270000BF
:1013900000270000002700010026000000260000B2
:1013A00000260000002600000026000100250000A5
:1013B0000025000000250000002500000025000099
:1013C000002500010024000000240000002400008B
:1013D000002400000024000100230000002300007E
:1013E0000023000000230000002300000023000071
:1013F0000023000100220000002200000022000063
:101400000022000000220000002200010021000054
:101410000021000000210000002100000021000048
:101420000021000000210001002000000020000039
:10143000002000000020000000200000002000002C
:101440000020000000200001001F0000001F00001D
:10145000001F0000001F0000001F0000001F000010
:10146000001F0001001E0000001E0000001E000002
:10147000001E0000004D3834004731205A31300042
:10148000473932205A30004D383420582059205ADC
:101490002045004D35303000473932204530004D71
:1014A000313039205330004D36303000473238006B
:1014B0004D35303000473239004732390047323835
:1014C0002052002B2F2D205A204F66667365740022
:1014D0002B2F2D205A204F6666736574004175745A
:1014E0006F20426564204C6576656C696E670053B9
:1014F000657420486F74656E64204F66667365740A
:1015000000473238004175746F20486F6D650043A5
:1015100068616E67652046696C616D656E74004236
:1015200061636B00553A2000563A20004D3A200086
:10153000436F6E74726F6C004F6666004F6E2000D2
:10154000456E61626C65204C454428443629004F45
:101550006666004F6E2000456E61626C65204865CE
:1015600061744265640053657420434620542E0024
:1015700053657420434620542E00416476616E63A7
:101580006564006F6B006F6B0041626F757400459E
:10159000787465726E616C204F7074696F6E004173
:1015A0006476616E63656400526573746F72652062
:1015B0006661696C73616665004C6F6164206D657E
:1015C0006D6F72790053746F7265206D656D6F7207
:1015D00079004D38340044697361626C652053743E
:1015E000657070657273004C45442028443629505C
:1015F000574D004C4544202844362950574D00484B
:101600006F74656E64004261636B005049442D4401
:10161000005049442D44005049442D49005049444C
:101620002D49005049442D50005049442D5000464A
:10163000616E207370656564202825290046616EFF
:101640002073706565642028252900426564004286
:101650006564004E6F7A7A6C65004E6F7A7A6C65BD
:1016600000436F6F6C646F776E00436F6E74726FC0
:101670006C0073796E635F706C616E5F706F73691D
:1016800074696F6E0073657475705F666F725F6505
:101690006E6473746F705F6D6F7665203E20656E4B
:1016A00061626C655F656E6473746F7073287472C9
:1016B0007565290072756E5F7A5F70726F62650082
:1016C000636C65616E5F75705F61667465725F659E
:1016D0006E6473746F705F6D6F7665203E20454E4B
:1016E0004453544F50535F4F4E4C595F464F525FD7
:1016F000484F4D494E47203E20656E6473746F70AD
:10170000735F6E6F745F686F6D696E672829006420
:1017100065706C6F795F7A5F70726F62650052619D
:10172000697365205A202861667465722920627980
:10173000200073746F775F7A5F70726F6265004824
:101740006F6D6520582F59206265666F7265205A4B
:1017500000486F6D6520582F59206265666F72656D
:10176000205A0029003C3C3C207365745F61786915
:10177000735F69735F61745F686F6D652800003E19
:1017800020686F6D655F6F66667365745B6178690D
:10179000735D3D3D003E207A70726F62655F7A6FC7
:1017A00066667365743D3D0029203E3E3E007365CC
:1017B000745F617869735F69735F61745F686F6D8F
:1017C00065280029003C3C3C20686F6D65617869A4
:1017D0007328003E20534552564F5F454E445354A4
:1017E0004F5053203E2053746F77207769746820E0
:1017F000736572766F2E6D6F76652829003E2053D3
:101800004552564F5F4C4556454C494E47203E2069
:101810002873746F775F7A5F70726F626528292909
:10182000003E204146544552207365745F617869DB
:10183000735F69735F61745F686F6D65003E20540C
:1018400052494747455220454E4453544F50003E5D
:1018500020656E61626C655F656E6473746F707332
:1018600028747275652900CDCC4C3FCDCC4C3FCD52
:10187000CC4C3F3E20656E61626C655F656E647343
:10188000746F70732866616C7365290000005243A1
:101890000000524300007043FFFFFF29003E3E3E20
:1018A00020686F6D6561786973280020746F6F2000
:1018B0006C6F6E6720657874727573696F6E2070D7
:1018C000726576656E7465640020636F6C64206574
:1018D0007874727573696F6E2070726576656E7458
:1018E00065640020706F736974696F6E206F757422
:1018F000206F662072616E67652E003F50726F62C6
:101900006520002D2D2D2D2D2D2D2D2D2D2D2D2D09
:101910000033445072696E746572207C007C200034
:101920002D2D2D2D2D2D2D2D2D2D2D2D2D002D2D14
:101930003A2D2D002D2D2D0020005A002020202092
:10194000000200202020200002005265616479001E
:101950004E4F205344000200020020004E65787470
:10196000206174205A506F7320004E657874206196
:1019700074205A506F73200064656C205A506F7346
:1019800000736574205A506F7300736574205A5049
:101990006F73004261636B00436172642072656D16
:1019A0006F766564004361726420696E736572745A
:1019B0006564007C3C3E5E2B3D3F2F5B5D3B2C2AEB
:1019C000225C0029002C20002C20003A2028004E08
:1019D0006F204C696E65204E756D62657220776967
:1019E000746820636865636B73756D2C204C61733C
:1019F00074204C696E653A20004B494C4C45442E8E
:101A0000200053544F505045442E20005072696EB0
:101A10007465722073746F707065642064756520DE
:101A2000746F206572726F72732E2046697820740D
:101A30006865206572726F7220616E6420757365CF
:101A4000204D39393920746F207265737461727456
:101A50002E202854656D70657261747572652069F9
:101A6000732072657365742E205365742069742029
:101A700061667465722072657374617274696E67F1
:101A800029004E6F20436865636B73756D2077691D
:101A90007468206C696E65206E756D6265722C20AD
:101AA0004C617374204C696E653A2000636865630D
:101AB0006B73756D206D69736D617463682C204C58
:101AC000617374204C696E653A20004C696E652024
:101AD0004E756D626572206973206E6F74204C6163
:101AE0007374204C696E65204E756D6265722B3182
:101AF0002C204C617374204C696E653A20004D3186
:101B00003130004D383420582059205A20450025C6
:101B10006920686F757273202569206D696E757410
:101B2000657300446F6E65207072696E74696E67CC
:101B30002066696C650020496E76616C6964206579
:101B40007874727564657220000000524300005280
:101B5000430000704300000000000000000000008F
:101B6000005761726E696E673A20486F6D696E67E3
:101B70002042756D702044697669736F72203C2035
:101B8000310043616E6E6F7420656E7465722073F0
:101B900075626469723A2000052E2E004261636B03
:101BA0000020204D383531205A005A2D50726F6276
:101BB00065204F666673657420286D6D293A002094
:101BC000204D3230302044300020204D3230302043
:101BD00044002044697361626C65640046696C610D
:101BE0006D656E742073657474696E67733A002056
:101BF000440020490020204D333034205000204440
:101C00000020490020204D333031205000504944FD
:101C10002073657474696E67733A00204600204231
:101C20000020204D3134352053312048002046001B
:101C300020420020204D3134352053302048004DC3
:101C40006174657269616C2068656174757020707B
:101C50006172616D65746572733A00205A00205993
:101C60000020204D323036205800486F6D65206FBF
:101C7000666673657420286D6D293A002045002042
:101C80005A0020580020420020540020204D3230BD
:101C900035205300416476616E636564207661721D
:101CA0006961626C65733A20533D4D696E206665CB
:101CB00065647261746520286D6D2F73292C205422
:101CC0003D4D696E2074726176656C206665656451
:101CD0007261746520286D6D2F73292C20423D6D33
:101CE000696E696D756D207365676D656E742074BE
:101CF000696D6520286D73292C20583D6D617869C8
:101D00006D756D205859206A65726B20286D6D2F96
:101D100073292C20205A3D6D6178696D756D205AAC
:101D2000206A65726B20286D6D2F73292C20204549
:101D30003D6D6178696D756D2045206A65726B2017
:101D4000286D6D2F73290020540020520020204D53
:101D5000323034205000416363656C657261746990
:101D60006F6E733A20503D7072696E74696E672CA5
:101D700020523D7265747261637420616E642054F8
:101D80003D74726176656C00204500205A00205930
:101D90000020204D3230312058004D6178696D753A
:101DA0006D20416363656C65726174696F6E202894
:101DB0006D6D2F7332293A00204500205A002059BA
:101DC0000020204D3230332058004D6178696D7508
:101DD0006D2066656564726174657320286D6D2F72
:101DE00073293A00204500205A0020590020204D38
:101DF00039322058005374657073207065722075F5
:101E00006E69743A00626564002C2073797374659E
:101E10006D2073746F70706564212048656174650E
:101E2000725F49443A20001D00BC02E6012C01F813
:101E30000129010A0226011D022301310220014667
:101E4000021D015C021A01730217018B021401A426
:101E5000021101BE020E01DA020B01F702080115A0
:101E6000030501350302015703FF007A03FC00A0BC
:101E700003F900C603F600F003F3001B04F000486A
:101E800004ED007804EA00AA04E700DF04E4001788
:101E900005E1005205DE009005DB00D105D80016F3
:101EA00006D5005F06D200AB06CF00FC06CC005181
:101EB00007C900AB07C6000A08C3006E08C000D7F8
:101EC00008BD004609BA00BC09B700370AB400B91A
:101ED0000AB100430BAE00D30BAB006B0CA8000C97
:101EE0000DA500B40DA200650E9F001E0F9C00E121
:101EF0000F9900AD10960083119300631290004C6F
:101F0000138D0040148A003D158700441684005646
:101F100017810071187E0095197B00C21A7800F8AD
:101F20001B7500361D72007B1E6F00C61F6C0017EC
:101F30002169006C226600C42363001F2560007ABB
:101F4000265D00D5275A002D295700832A5400D436
:101F50002B51001F2D4E00632E4B009E2F4800CFAB
:101F6000304500F631420011333F0020343C00215F
:101F700035390016363600FC363300D5373000A030
:101F8000382D005C392A000B3A2700AD3A24004175
:101F90003B2100C93B1E00453C1B00B63C18001C01
:101FA0003D1500783D1200CA3D0F00143E0C00554F
:101FB0003E0900903E0600C33E0300F03E0000458F
:101FC00072723A204D415854454D50004D4158547D
:101FD000454D50207472696767657265640045728B
:101FE000723A204D494E54454D50004D494E54458E
:101FF0004D5020747269676765726564004572723E
:102000003A204D494E54454D5020424544004D49DB
:102010004E54454D5020747269676765726564005F
:102020004572723A204D415854454D502042454426
:10203000004D415854454D50207472696767657270
:1020400065640000466C6F7700466C6F77004661F0
:102050006E207370656564202825290046616E2016
:102060007370656564202825290042656400426517
:1020700064004E6F7A7A6C65004E6F7A7A6C6500F8
:102080004261636B004D6F76652058004D6F766539
:102090002059004D6F7665205A004578747275643A
:1020A0006572004578747275646572004D6F76656F
:1020B000205A004D6F76652059004D6F7665205887
:1020C000004D6F76652061786973004D6F766520ED
:1020D000302E316D6D004D6F766520316D6D004D88
:1020E0006F76652031306D6D00416476616E636599
:1020F00064004D6F766520486F74656E64004731EB
:10210000205A32300A473238004D353030005361A2
:1021100076650053657420486F74656E64204F6661
:10212000667365740043616E63656C004731205AC5
:1021300033300A4732380A473932205A3230005297
:102140006573656E643A20006F6B003E20636C61BE
:102150006D705F746F5F736F6674776172655F65D2
:102160006E6473746F7073203E2041646420686FE6
:102170006D655F6F66667365745B5A5F415849535E
:102180005D3A004B494C4C45442E20004B494C4C89
:1021900045442E2000627573793A2070617573652D
:1021A0006420666F7220696E707574006275737951
:1021B0003A2070617573656420666F72207573656F
:1021C0007200627573793A2070726F636573736918
:1021D0006E67005072696E7465722068616C746518
:1021E000642E206B696C6C28292063616C6C6564BB
:1021F000210020403A002042403A00202F00204297
:102200003A00202F0020543A00205A3A0020593A30
:102210000020436F756E7420583A200020453A0024
:10222000205A3A0020593A00583A004F66667365C2
:102230007473206170706C696564004572723A2035
:10224000546F6F206661722100546F6F2066617257
:102250002066726F6D207265666572656E636520BB
:10226000706F696E74000000000000000000000044
:1022700000004573746570732F6D6D004573746550
:1022800070732F6D6D005A73746570732F6D6D00D0
:102290005A73746570732F6D6D0059737465707324
:1022A0002F6D6D005973746570732F6D6D005873C9
:1022B000746570732F6D6D005873746570732F6D36
:1022C0006D00412D74726176656C00412D747261F0
:1022D00076656C00412D7265747261637400412DE6
:1022E0007265747261637400416D617820450041CC
:1022F0006D6178204500416D6178205A00416D6123
:1023000078205A00416D6178205900416D61782034
:102310005900416D6178205800416D617820580066
:102320005654726176206D696E0056547261762043
:102330006D696E00566D696E00566D696E00566D62
:102340006178204500566D6178204500566D6178B2
:10235000205A00566D6178205A00566D61782059D8
:1023600000566D6178205900566D617820580056EE
:102370006D617820580056652D6A65726B00566550
:102380002D6A65726B00567A2D6A65726B00567AFB
:102390002D6A65726B005678792D6A65726B0056EE
:1023A00078792D6A65726B00416363656C004163E7
:1023B00063656C004D6F7665206178697300436FCB
:1023C0006E74726F6C0020746F6F206C6F6E67207C
:1023D000657874727573696F6E2070726576656E5C
:1023E0007465640020636F6C642065787472757323
:1023F000696F6E2070726576656E746564004B64FB
:10240000200023646566696E652020444546415579
:102410004C545F004B69200023646566696E65203B
:102420002044454641554C545F004B7020002364C6
:102430006566696E65202044454641554C545F00F1
:10244000504944204175746F74756E652066696EDD
:102450006973686564212050757420746865206C08
:10246000617374204B702C204B6920616E64204B8B
:102470006420636F6E7374616E74732066726F6D27
:102480002062656C6F7720696E746F20436F6E6693
:10249000696775726174696F6E2E680050494420D7
:1024A0004175746F74756E65206661696C65642131
:1024B0002074696D656F75740050494420417574CE
:1024C0006F74756E65206661696C65642120546562
:1024D0006D706572617475726520746F6F206869C4
:1024E000676800204B643A2000204B693A200020A6
:1024F0004B703A200020436C61737369632050492C
:102500004420002054753A2000204B753A200020CA
:102510006D61783A2000206D696E3A200020643A9F
:10252000200020626961733A20005A506F732000C6
:102530005A506F7320004368616E676520666D2E88
:10254000206174205A506F73004D363032004D3682
:102550003033005072696E7465722068616C746506
:10256000642E206B696C6C28292063616C6C656437
:102570002100526573657420616C6C0053746F7038
:10258000207072696E7400526573756D652070728B
:10259000696E74004D6F76652061786973005061D3
:1025A000757365207072696E7400436F6E74726F1C
:1025B0006C0050726570617265004368616E67659A
:1025C00020666D2E206174205A506F73004D363096
:1025D00030004368616E67652066696C616D656E89
:1025E000740054756E65005072696E742066726F67
:1025F0006D205344004D6F6E69746F7200205A3A1B
:10260000200020593A200042656420583A200052A8
:102610006573756D696E67207072696E74005761BD
:10262000697420666F7220757365722E2E2E0054A9
:10263000455354004E6F206D6F76652E00456E64D5
:102640002066696C65206C69737400426567696E09
:102650002066696C65206C6973740046696C65203E
:1026600064656C657465643A0044656C6574696F93
:102670006E206661696C65642C2046696C653A2041
:10268000006F70656E206661696C65642C20466918
:102690006C653A20004E414E494E495459494E46C8
:1026A000CDCCCC3D0AD7233C17B7D13877CC2B32D1
:1026B0009595E6241FB14F0A000020410000C84252
:1026C00000401C4620BCBE4CCA1B0E5AAEC59D74B1
:1026D00024DA7ADE11241FBECFEFD1E2DEBFCDBFF8
:1026E00000E00CBF16E0A0E0B2E0E4E3FDEE01E0A4
:1026F0000BBF02C007900D92A836B107D9F726E1AB
:10270000A8E6B6E001C01D92A83BB207E1F713E1CD
:10271000C9E6D3E100E006C021970109802FFE0140
:102720000E9416EBC836D10780E00807A9F70E947F
:102730005AD50C9488F60C9400002F923F924F9239
:102740005F926F927F928F929F92AF92BF92CF9241
:10275000DF92EF92FF920F931F93CF93DF93CDB74A
:10276000DEB7A8970FB6F894DEBF0FBECDBF20919D
:10277000490930914A0940E6429FC001439F900DAC
:1027800011248753984F9093AB068093AA068091AB
:10279000491680FF22C0EFE6FCE08491882341F0D7
:1027A0009091C00095FFFCCF8093C6003196F5CF85
:1027B000E091AA06F091AB068191882339F09091BF
:1027C000C00095FFFCCF8093C600F6CF8091C0007B
:1027D00085FFFCCF8AE08093C6002091AA06309145
:1027E000AB06F90180812F5F3F4F8032D1F3F09328
:1027F000AB06E093AA068E3469F01091AA06009108
:10280000AB066AE270E0812F902F0E94B8EE00972D
:10281000D1F420C0818190ED980F9A3010F08D3264
:1028200061F73296DF0131962C9120532A30D0F394
:10283000CD01FC01019620812032D9F3F093AB0643
:10284000E093AA06DACFFC0131968291803231F012
:102850008A3221F0A12FB02F2D9102C01082F5CF26
:10286000FD01808111968032D9F380538A3020F0A7
:10287000EFE6FCE00C94E32960E070E03AE0369F7C
:10288000C001379F900D1124BC01605371098191E3
:10289000680F711D87FD7A95808180538A3078F3A7
:1028A000CF013196DC013C913032D1F39093A806F0
:1028B0008093A70641E050E05093CD154093CC158E
:1028C0002D3409F475C2243511F40C94B028273442
:1028D00011F00C9420296C31710509F47CC078F456
:1028E0006430710538F46230710528F50E94CE74A9
:1028F0000C9448296430710539F10C9448296A35E3
:10290000710509F4E9C168F46D31710509F4E0C19C
:102910006E31710511F00C9448290E94A1D20C94DB
:1029200048296B35710509F4DBC16C35710509F473
:10293000DCC10C94482981E06230710509F080E027
:102940000E94F16D0C94482980E50E94E79388234A
:1029500029F00E9407946B017C0103C0C12CD12C8B
:10296000760183E50E94E793882361F00E94129428
:1029700020E030E04AE754E40E9422EF0E9468EC35
:102980006B017C010E9496CE0E943A988091C415FA
:102990009091C515A091C615B091C715C80ED91E46
:1029A000EA1EFB1E8091580B811105C060E081EC8E
:1029B00091E00E94CB880E94E182DC01CB018C195E
:1029C0009D09AE09BF09B7FD02C00C94482980E0FB
:1029D0000E9455B4F0CF0E9496CE84E2EAE0F2E085
:1029E000DE01119601900D928A95E1F70E942AD39B
:1029F0000E943C730E9478731092020210920302AC
:102A0000109204021092050288E50E94E793F82EC6
:102A100089E50E94E793082F8AE50E94E793182F23
:102A2000F11005C0011105C091E0982705C0011102
:102A300002C090E001C0982F90930002911102C053
:102A4000112381F180E090E00E94D47582E090E053
:102A50000E94D47580916A0690916B06A0916C06D5
:102A6000B0916D068093020290930302A09304023A
:102A7000B0930502809168069091690690935D027B
:102A800080935C020E943A981092C8070E943C739F
:102A90000E947873109202021092030210920402B4
:102AA0001092050280910002811102C0FF2021F0E6
:102AB00080E090E00E94D47580910002811102C0F4
:102AC000002321F081E090E00E94D4758091000203
:102AD000882309F447C00E94827380E090E0A2ED51
:102AE000B2E48093810690938206A0938306B0930C
:102AF00084068093850690938606A0938706B093FC
:102B0000880680E090ECAAEDB5E4809302029093F1
:102B10000302A0930402B09305020E94C5740E94B0
:102B200096CE8091810690918206A0918306B09105
:102B300084068093700790937107A0937207B093F7
:102B400073078091850690918606A0918706B091C3
:102B500088068093740790937507A0937607B093C7
:102B6000770743C0112309F46EC080915E14882357
:102B700009F467C080915F14882309F462C08090D3
:102B8000700790907107A0907207B0907307C09083
:102B90007407D0907507E0907607F090770720E0F3
:102BA00030E0A901C501B4010E9445ED87FD22C0B6
:102BB00020E030E042E553E4C501B4010E9404F393
:102BC0001816C4F020E030E0A901C701B6010E9448
:102BD00045ED87FD0FC020E030E042E553E4C7013A
:102BE000B6010E9404F318162CF082E090E00E94D7
:102BF000D47529C060E08BE092E00E94CB88EFE6BC
:102C0000FCE08491882341F09091C00095FFFCCFB7
:102C10008093C6003196F5CFEAEFF1E084918823E6
:102C200041F09091C00095FFFCCF8093C600319693
:102C3000F5CF8091C00085FFFCCF8AE08093C6006D
:102C400002C00E944B710E948273109248028091D0
:102C5000491685FF14C0EAECF1E08491882341F025
:102C60009091C00095FFFCCF8093C6003196F5CFC0
:102C70008091C00085FFFCCF8AE08093C6008091E0
:102C80006A0690916B06A0916C06B0916D068093D8
:102C9000020290930302A0930402B0930502809174
:102CA00068069091690690935D0280935C020E9491
:102CB0003A981092C80784E2FE013196AAE0B2E089
:102CC00001900D928A95E1F70E94BEBA0C944829B2
:102CD0000E94612A0C9448291092A6060C94482957
:102CE00081E08093A6060C94482985E40E94E7932E
:102CF000B82E811102C00E9496CE27E9822E22E0D2
:102D0000922E30E7C32E37E0D32E4EE6E42E46E077
:102D1000F42EA12C00E010E0F40181914F010E94FB
:102D2000E793882361F1D6012D913D914D915C91FE
:102D30002DA33EA34FA358A70E941294F6016083CF
:102D40007183828393832DA13EA14FA158A50330A7
:102D50001105A9F00E941EEB9B01AC01D7016D91FA
:102D60007D918D919C910E941FEBF701608371838F
:102D700082839383C8010E94A193AA24A3940F5F26
:102D80001F4FF4E0CF0ED11C24E0E20EF11C043002
:102D9000110511F6AA2021F00E9482730C94482993
:102DA000BB2011F40C9448290E9455D30C94482957
:102DB0006337710509F494C708F0BBC06C34710522
:102DC00009F409C308F061C06831710509F4C2C192
:102DD00078F56231710509F435C768F46230710520
:102DE00008F4AAC16131710511F00C9448290E94C0
:102DF0003DE80C9448296531710509F4A1C148F4F6
:102E00006431710511F00C9448290E94D7E70C94A5
:102E100048296631710509F497C16731710511F0D0
:102E20000C94482940E061E00E9402440C94482937
:102E30006E31710509F4FEC1A8F46A31710509F417
:102E40009EC108F492C16B31710509F4A6C16C31C1
:102E5000710511F00C94482940E060E00E940244A2
:102E60000C9448296032710509F4E8C108F430C2B5
:102E70006A32710509F46DC26B34710511F00C945E
:102E800048290E9408DB0C9448296836710509F42A
:102E9000BCC238F56235710509F4CBC678F46035EB
:102EA000710509F476C608F090C66D34710511F00D
:102EB0000C9448290E948D580C944829643571055A
:102EC00009F4C0C608F4B9C66535710509F4EDC644
:102ED0006C35710511F00C9448290E9439E00C946E
:102EE00048296E36710509F4F3C280F46A3671051B
:102EF00009F418C608F4BDC36B36710509F438C669
:102F00006D36710509F4D7C30C94482960377105F3
:102F100009F463C308F4EFC26137710509F461C3B2
:102F20006237710511F00C9448290E94BEBA0C94C6
:102F300048296D3231E0730711F40C94C32208F074
:102F400082C0693C710511F40C94112050F5693769
:102F5000710509F4D0C680F46737710509F4E9C03A
:102F600008F0C2C66537710511F00C94482960E07D
:102F70000E94E5880C9448296139710509F444C719
:102F800030F46C38710509F45DC30C9448296E3B2C
:102F9000710509F4E3C4683C710509F4F8C70C94A1
:102FA00048296C3D710511F40C945C2180F56C3C52
:102FB000710511F40C94492080F46B3C710511F0FB
:102FC0000C94482929E2E22E26E1F22E07E912E0CC
:102FD00034E0D32ED00E0C943A206D3C710511F4E0
:102FE0000C94C5206E3C710511F00C94482907E93A
:102FF000A02E02E0B02E80E7C82E87E0D82E97E7FB
:10300000E92E95E1F92E00E010E00C943221623EA9
:10301000710511F40C94872138F46D3D710511F49C
:103020000C946B210C9448296831B1E07B0711F4B2
:103030000C94DD216C32714011F00C9448290E94EF
:103040000CE00C944829643FF1E07F0711F40C94E4
:10305000A12478F5603931E0730711F40C949024C1
:1030600080F46F3291E0790711F40C94472410F446
:103070000C9433246033714011F40C9492230C941B
:1030800048296239E1E07E0711F40C94982410F489
:103090000C9493246A3921E0720711F40C949E2455
:1030A0006C3A714011F00C9448290E9408DF0C948E
:1030B00048296A3582E0780711F40C94D727B0F4D8
:1030C000663FA1E07A0711F40C94A72410F40C9445
:1030D000A424673FE1E07E0711F40C94AA2468352C
:1030E000724011F40C9444250C944829633523E074
:1030F000720711F40C94BE2448F46B35724011F041
:103100000C9448290E949BDE0C944829603A93E075
:10311000790709F4D9C0673E734011F00C9448292F
:1031200081E0809366021092C9140E940FBA0C9439
:103130004829EBECF3E0EBC50E944EE80C944829DB
:103140000E94A2580C9448291092AE0C1092AF0C19
:103150000C9448298091AF0C882319F081E080936A
:10316000AE0C0E9408DB0C9448298091AE0C882399
:1031700011F40C9448291092AE0C0C9448298091BB
:10318000AF0C882311F40C94482983E50E94E7933F
:1031900081110C940E2A0C9448298091AF0C811156
:1031A00003C0EEE2F2E03AC0ECE1F2E08491882361
:1031B00041F09091C00095FFFCCF8093C6003196FE
:1031C000F5CF60912A0F70912B0F80912C0F909169
:1031D0002D0F4AE00E9442568091C00085FFFCCF2F
:1031E0008FE28093C6006091260F7091270F809127
:1031F000280F9091290F4AE00E9442568091C0000A
:1032000085FFFCCF8AE08093C6000C9448299091FA
:10321000C00095FFFCCF8093C60031968491811148
:10322000F6CF8091C00085FFFCCF8AE08093C60076
:103230000C9448290E9479E60C9448298091AE0CA0
:1032400081110E9496CE0091A7061091A80661E216
:1032500070E0C8010E94B8EE009719F08C010F5F72
:103260001F4F80E50E94E793882349F0FF24F394E1
:1032700080917A0690917B068017910708F0F12CD7
:103280008091AF0C882311F40C9448294F2D61E0F4
:10329000C8010E94024483E50E94E793882349F015
:1032A00080917A0690917B068017910710F40C9418
:1032B000212A8091AF0C882319F081E08093AE0C15
:1032C000F1100C9448294DCF0E946CE10C944829D0
:1032D0000E9455582CE330E040E050E00E942BF66D
:1032E0007F936F933F932F938EE392E09F938F93FF
:1032F0008E010F5F1F4F1F930F930E94D5F20FB6E1
:10330000F894DEBF0FBECDBFEFE6FCE084918823CA
:1033100041F09091C00095FFFCCF8093C60031969C
:10332000F5CFF8018191882339F09091C00095FF85
:10333000FCCF8093C600F6CF8091C00085FFFCCF04
:103340008AE08093C60060E0C8010E94E5880C9482
:10335000482983E50E94E793882311F40C944829B7
:103360000E94FA937C018F3F910519F010F00C94A4
:10337000482980E50E94E793882339F00E94FA9358
:103380008C0197FF04C00C9448290DE010E0EBE994
:10339000F2E0819191910817190711F40C944829D2
:1033A00022E0E13DF207A9F761E0802F0E94534A35
:1033B0006E2D802F0E94244AB701802F0E94E08149
:1033C0000930110511F00C944829F0924214E09252
:1033D00041140C9448298091A00C9091A10C019764
:1033E00011F00C94482982E090E09093A10C809316
:1033F000A00C0E94E1826093A80C7093A90C8093AA
:10340000AA0C9093AB0C0C94482988E690E00E949B
:1034100034DE81110C9448298091491683FF02C043
:103420000C94482983E50E94E793882311F40C94B7
:1034300048290E9412946B017C010091A10610E0C2
:10344000000F111F085B1B4EC701B6010E9463EC01
:10345000D8016D937C9320E030E040EA52E4C7014C
:10346000B6010E9404F31816B4F00E948D588EE83D
:1034700097E09F938F9384EE93E09F938F930E94A6
:10348000F0EE60E0CE0101960E94E5880F900F906B
:103490000F900F9002C00E9408DBE091A106B4E0FB
:1034A000EB9FF0011124EF59FB4E208131814281C5
:1034B0005381C701B6010E9445ED181614F00C9413
:1034C000482960E08DE492E00E94CB880C94482962
:1034D0008EE40E94E793882311F40C9448290E94FB
:1034E000079460937C0670937D0680937E0690938C
:1034F0007F060C94482983E50E94E793882319F0FE
:103500000E94FA9301C080E080934916EFE6FCE048
:103510008491882341F09091C00095FFFCCF809367
:10352000C6003196F5CFE8E6F2E08491882341F0B9
:103530009091C00095FFFCCF8093C6003196F5CFE7
:1035400080914916882399F148E552E020E030E067
:1035500060E07CE28091491690E0022E02C09595D1
:1035600087950A94E2F780FF1AC0A1E0A60F6623B0
:1035700031F08091C00085FFFCCF7093C600FA0146
:1035800085919491FC016491662341F0E091C00023
:10359000E5FFFCCF6093C6000196F4CF6A2F2F5F42
:1035A0003F4F4E5F5F4F26303105A1F60DC0E4E678
:1035B000F2E08491882341F09091C00095FFFCCF08
:1035C0008093C6003196F5CF8091C00085FFFCCF77
:1035D0008AE08093C6000C9448298FE692E00E940E
:1035E00019B483E50E94E793882369F00E94FA9357
:1035F000809379028D3310F40C9448298CE38093E6
:1036000079020C944829EFE6FCE08491882341F08C
:103610009091C00095FFFCCF8093C6003196F5CF06
:103620004091790250E060E070E088E792E00E940B
:10363000AC978091C00085FFFCCF8AE08093C600E4
:103640000C9448298091491683FF02C00C944829A4
:1036500083E50E94E793882311F40C9448290E9483
:1036600012940E9463EC70934614609345140C947A
:10367000482989E690E00E9434DE811116C0EFE708
:10368000F2E08491882341F09091C00095FFFCCF37
:103690008093C6003196F5CF0E94D3E08091C000A0
:1036A00085FFFCCF8AE08093C6001092CD15109262
:1036B000CC150C94482A8DE690E00E9434DE8111EE
:1036C0000C9448298091491683FF02C00C94482924
:1036D00083E50E94E793F82E811106C082E50E94DF
:1036E000E793882309F44AC00E9412944B015C01BD
:1036F0000091A10610E0000F111F085B1B4EC501D1
:10370000B4010E9463ECD8016D937C9320E030E01B
:1037100040EA52E4C501B4010E9404F3181614F4FF
:103720000C94352A0E948D588EE897E09F938F93D2
:1037300084EE93E09F938F930E94F0EE60E0CE01C1
:1037400001960E94E5880F900F900F900F90E091E6
:10375000A10624E0E29FF0011124EF59FB4E2081E5
:10376000318142815381C501B4010E9445ED181693
:103770002CF460E086E992E00E94CB880091A106DB
:1037800010E0F801EE0FFF1FE85BFB4E60817181D6
:10379000072E000C880B990B0E940AF34B015C0169
:1037A000000F111F000F111FF801EF59FB4E208170
:1037B000318142815381C501B4010E9404F3881F05
:1037C0008827881FF1100EC081F020E030E040EA29
:1037D00052E4C501B4010E9404F387FF02C00C94B7
:1037E000482903C081110C9448291092A316412C3A
:1037F000512C3201812C912C54011AE00E94E1825B
:103800006B017C01DC01CB0184199509A609B7097C
:10381000B7FD4AC02601370138EE430E33E0531E90
:10382000611C711C0E94D3E0E2E9F2E084918823DC
:1038300041F09091C00095FFFCCF8093C600319677
:10384000F5CF81149104A104B104D9F0D501C401CC
:1038500088579C4EAF4FBF4FBC01CD016C197D09FD
:103860008E099F0928EE33E040E050E00E942BF6DD
:10387000CA01B9010E94B7568091C00085FFFCCFF4
:1038800011C0E0E9F2E08491882341F09091C000FA
:1038900095FFFCCF8093C6003196F5CF8091C00094
:1038A00085FFFCCF1093C60080E00E9455B40E94B3
:1038B0003A982090A106312CF101EE0FFF1FE85B32
:1038C000FB4E60817181072E000C880B990B0E94C2
:1038D0000AF3F101EE0FFF1FEE0FFF1FEF59FB4E32
:1038E00020813181428153810E941EEB9F77811498
:1038F0009104A104B10469F420E030E040E85FE302
:103900000E9404F387FF0DC00E94E1824B015C011D
:1039100008C020E030E040E450E40E9445ED181675
:103920009CF38091A316811112C081149104A1040B
:10393000B10409F463CF88E8C81A83E1D80AE10822
:10394000F108C818D908EA08FB08F7FC57CF60E06F
:1039500082E892E00E94CB880C9448298091491615
:1039600083FF02C00C94482960E081EB92E00E9442
:10397000CB8883E50E94E793182F81110C94392A94
:1039800082E50E94E79381110C94392A60914514D5
:1039900070914614072E000C880B990B0E940AF3B5
:1039A00020917114309172144091731450917414D9
:1039B000112331F00E9404F387FF02C00C944829C0
:1039C0001092A316412C512C3201812C912C5401C0
:1039D0001AE00E94E1826B017C01DC01CB018419B9
:1039E0009509A609B709B7FD4AC02601370198EE27
:1039F000490E93E0591E611C711C0E94D3E0EDEA50
:103A0000F2E08491882341F09091C00095FFFCCFB3
:103A10008093C6003196F5CF81149104A104B104BE
:103A2000D9F0D501C40188579C4EAF4FBF4FBC01A0
:103A3000CD016C197D098E099F0928EE33E040E025
:103A400050E00E942BF6CA01B9010E94B75680913E
:103A5000C00085FFFCCF11C0EBEAF2E0849188231F
:103A600041F09091C00095FFFCCF8093C600319645
:103A7000F5CF8091C00085FFFCCF1093C60080E099
:103A80000E9455B40E943A98609145147091461472
:103A9000072E000C880B990B0E940AF39B01AC01C6
:103AA00060917114709172148091731490917414D8
:103AB0000E941EEB9F7781149104A104B10469F464
:103AC00020E030E040E85FE30E9404F387FF0DC090
:103AD0000E94E1824B015C0108C020E030E040E43C
:103AE00050E40E9445ED18169CF38091A3168111B5
:103AF00012C081149104A104B10409F46ACFA8E8AA
:103B0000CA1AA3E1DA0AE108F108C818D908EA08D4
:103B1000FB08F7FC5ECF60E081EA92E00E94CB8870
:103B20000C94482983E50E94E793882321F00E94A2
:103B3000FA938C0102C00FEF10E080E50E94E7933A
:103B4000882319F00E94FA9302C080E090E0980167
:103B50000F3F110519F010F02FEF30E0892B11F015
:103B60000C94482930934214209341140C94482912
:103B700080E50E94E793811106C0109242141092D2
:103B800041140C9448290E94FA93892BB1F30C94A8
:103B90004829269A2E9881E0809301028EE897E0CA
:103BA0009F938F9384EE93E09F938F930E94F0EE08
:103BB00060E0CE0101960E94E5880E94F6880F9091
:103BC0000F900F900F900C9448290E940BA90E940F
:103BD00096CE0E9408B4109242141092411468EEDE
:103BE00073E080E090E00E94A982269A2E9A1092BB
:103BF00001028EEE93E09F938F938EE897E09F9360
:103C00008F9382EF93E09F938F938E010F5F1F4FEF
:103C10001F930F930E94F0EE60E0C8010E94E588B8
:103C20000E94F6880FB6F894DEBF0FBECDBF0C948D
:103C300048291092A5060C94482981E08093A50696
:103C40000C94482983E50E94E7938823A1F00E9401
:103C5000129420E030E04AE754E40E9422EF0E94F0
:103C600068EC6093C0157093C1158093C215909352
:103C7000C3150C94482988E50E94E79381110C94A0
:103C8000222989E50E94E79381110C9422298AE573
:103C90000E94E79381110C94222985E40E94E79306
:103CA00081110C9422290C94432A83E50E94E79306
:103CB000882311F40C9448290E94129420E030E0EB
:103CC0004AE754E40E9422EF0E9468EC6093C81512
:103CD0007093C9158093CA159093CB150C944829FD
:103CE0000E943BBA0C94482981E08093480280935B
:103CF00080060C94482910924802109280060C9479
:103D000048299091C00095FFFCCF8093C600819117
:103D10008111F7CF8091C00085FFFCCF8AE08093AE
:103D2000C600EEECF2E08491882341F09091C0004F
:103D300095FFFCCF8093C6003196F5CF659903C0FF
:103D4000ECEBF3E009C0E1ECF3E006C09091C000B9
:103D500095FFFCCF8093C60081918111F7CF8091B0
:103D6000C00085FFFCCF8AE08093C600E6ECF2E05D
:103D70008491882341F09091C00095FFFCCF8093FF
:103D8000C6003196F5CF8091030181FD03C0ECEBB5
:103D9000F3E009C0E1ECF3E006C09091C00095FFAC
:103DA000FCCF8093C60081918111F7CF8091C00034
:103DB00085FFFCCF8AE08093C600EEEBF2E08491B1
:103DC000882341F09091C00095FFFCCF8093C600FE
:103DD0003196F5CF4B9B03C0ECEBF3E009C0E1EC6F
:103DE000F3E006C09091C00095FFFCCF8093C60021
:103DF00081918111F7CF8091C00085FFFCCF8AE0CF
:103E00008093C6000C94482983E50E94E793882399
:103E100051F10E94FA93823018F1ECE4FCE08491B5
:103E2000882341F09091C00095FFFCCF8093C6009D
:103E30003196F5CFE6EDF2E08491882341F0909140
:103E4000C00095FFFCCF8093C6003196F5CF8091DE
:103E5000C00085FFFCCF8AE08093C6000C944829FF
:103E6000813009F44AC088E40E94E793882391F0E6
:103E70000E94FA93803A91053CF08D32F1E09F0761
:103E80002CF08CE291E002C080EA90E090937615ED
:103E90008093751586E40E94E793882381F00E9441
:103EA000FA938F3F910519F014F08FEF90E097FF90
:103EB00002C080E090E0909372158093711580911C
:103EC0004714882311F40C94482982E40E94E79354
:103ED000882311F40C9448290E94FA93883891059C
:103EE00014F087E890E097FF02C080E090E09093A4
:103EF0007415809373150C94482988E40E94E79305
:103F0000882391F00E94FA93803A91053CF08D321B
:103F100021E092072CF08CE291E002C080EA90E070
:103F20009093701580936F1586E40E94E793882321
:103F300081F00E94FA938F3F910519F014F08FEFF2
:103F400090E097FF02C080E090E090936C15809322
:103F50006B1580914714882311F40C94482982E44E
:103F60000E94E793882311F40C9448290E94FA9345
:103F70008838910514F087E890E097FF02C080E050
:103F800090E090936E1580936D150C94482988EC01
:103F900090E00E9434DE81110C94482984E40E9450
:103FA000E793882311F40C9448290E9412946B0122
:103FB0007C0111E020E030E0A9010E9404F38111AE
:103FC00001C010E010936A15112339F1E091A106A8
:103FD00034E0E39FF0011124EE59FD4FC082D182FD
:103FE000E282F38220E030E0A901609162027091E8
:103FF000630280916402909165020E9404F3811132
:104000000CC080E090E0A0EEBFE38093620290934A
:104010006302A0936402B09365020E94C1B30C9442
:10402000482941E1E42E46E1F42E07E912E054E08C
:10403000D52ED00ED8018D918D010E94E793882353
:1040400049F00E9412940E9468ECF701608371832A
:1040500082839383F4E0EF0EF11CD012EBCF0E9429
:104060006A5A0C944829F4E0EF0EF11CD01611F4B2
:104070000C944829D8018D918D010E94E7938823E3
:1040800091F30E941294F70160837183828393837A
:10409000EACF83E50E94E7938823F9F00E94129407
:1040A000AB01BC01409345165093461660934716EA
:1040B000709348164093091650930A1660930B1696
:1040C00070930C1681E593E00E94CE978091C0001A
:1040D00085FFFCCF8AE08093C60080E50E94E793CD
:1040E0008823B9F00E941294AB01BC01409345169D
:1040F00050934616609347167093481684E393E0F6
:104100000E94CE978091C00085FFFCCF8AE080930B
:10411000C60082E50E94E7938823B9F00E941294BA
:10412000AB01BC0140930D1650930E1660930F1611
:104130007093101685E193E00E94CE978091C000A5
:1041400085FFFCCF8AE08093C60084E50E94E79358
:10415000882311F40C9448290E941294AB01BC01ED
:104160004093091650930A1660930B1670930C1621
:1041700087EF92E00E94CE978091C00085FFFCCF30
:104180008AE08093C6000C94482983E50E94E79357
:10419000882351F00E94129460932516709326167E
:1041A000809327169093281684E50E94E79388232E
:1041B00051F00E94129460932116709322168093FE
:1041C00023169093241682E40E94E793882361F0DB
:1041D0000E9412940E9468EC60938315709384157A
:1041E000809385159093861588E50E94E793882330
:1041F00051F00E941294609341167093421680937E
:104200004316909344168AE50E94E793882351F061
:104210000E94129460933D1670933E1680933F1651
:104220009093401685E40E94E793882311F40C9440
:1042300048290E9412946093391670933A1680931D
:104240003B1690933C160C9448290F5F1F4FB4E027
:10425000CB0ED11CE4E0EE0EF11C0330110511F47D
:104260000C94CC16D5018D915D010E94E7938823B3
:1042700061F30E9412942B013C01F70120813181EE
:10428000428153810E941EEB9B01AC01D6016D91CE
:104290007D918D919C910E941FEBF601608371834B
:1042A00082839383D7014D925D926D927C92139796
:1042B000C8010E94A193C9CF83E50E94E793882398
:1042C00009F4E6C70E9412940E9463EC70935D02A9
:1042D00060935C02DDC783E50E94E793882309F4BD
:1042E000D7C70E9412940E9463EC6B017C018DED94
:1042F00090E00E9434DE8111CBC7E091A106F0E08E
:10430000EE0FFF1FE559FD4FD182C082C1C780E586
:104310000E94E793882309F4BBC70E9412940E946D
:1043200063ECD62EE62EF72E83E50E94E7938823D2
:1043300031F00E9412940E9463EC8B0102C00FEFD7
:104340001FEFC8010196039708F0A2C7EBE9F2E05E
:10435000819191918E159F0509F49AC722E0E13D64
:10436000F207B1F7F7FC94C70E9496CEFD2C60E0EF
:104370008D2D0E94534A0F3F3FEF130731F001305C
:10438000110571F401E010E00DC08D2D0E9431D5B2
:1043900031E020E0892B09F030E0032F122F02C01A
:1043A00000E010E08F2D0E9431D58017910709F4AD
:1043B0006FC780E00E9455B4F5CF80E50E94E79377
:1043C000882321F00E94FA938C0102C00FEF1FEFA7
:1043D00083E50E94E793882309F43EC00E94FA9384
:1043E0000115110531F4BC018DE99CE00E94BB620E
:1043F0004FC7ECE4FCE08491882341F09091C00029
:1044000095FFFCCF8093C6003196F5CFE8E0F4E04D
:104410008191882339F09091C00095FFFCCF809363
:10442000C600F6CFB801110F880B990B0E94B75642
:10443000E9EFF3E08191882339F09091C00095FF76
:10444000FCCF8093C600F6CF8091C00085FFFCCFE3
:104450008AE08093C6001CC717FD1AC7EFE6FCE090
:104460008491882341F09091C00095FFFCCF809308
:10447000C6003196F5CFE7E0F4E08191882339F06A
:104480009091C00095FFFCCF8093C600F6CFB80195
:10449000012E000C880B990B0E94B756E4E1F6E060
:1044A0008191882339F09091C00095FFFCCF8093D3
:1044B000C600F6CFF801EE0FFF1F0E0F1F1FF80109
:1044C000E356F34F828128E532E06901C81AD1082A
:1044D00087FDD394CC0CDD1CCC0CDD1C0D2C000C0A
:1044E000EE08FF08818128E830E04901881A910828
:1044F00087FD9394880C991C880C991C092C000C3E
:10450000AA08BB0880818F3FC1F090E0FC01EE0F4C
:10451000FF1F8E0F9F1FFC01E05DF34F2181328151
:1045200053E0220F331F5A95E1F764E03695279543
:104530006A95E1F72E5F3F4F02C020E030E02F5F29
:104540003F4FC901330FAA0BBB0B9C01AD012819CA
:1045500039094A095B09A4EBB0E00E9469F6A7019A
:104560009601281939094A095B090E944DF6CA01CA
:10457000B9010E94B7568091C00085FFFCCF8AE048
:104580008093C60085C685E40E94E793811110C020
:1045900080E50E94E7938823A9F00E94129460931B
:1045A00054027093550280935602909357020AC0AA
:1045B0000E9412940E9463EC161617064CF7ECE466
:1045C000FCE099C089E40E94E793882381F00E946F
:1045D00012942CE933E549E45EE30E9422EF6093F4
:1045E000420270934302809344029093450284E414
:1045F0000E94E793882381F00E9412942CE933E50E
:1046000049E45EE30E94FBEB609358027093590209
:1046100080935A0290935B020E94E8ABEFE6FCE0C5
:104620008491882341F09091C00095FFFCCF809346
:10463000C6003196F5CFEFE0F4E08191882339F0A0
:104640009091C00095FFFCCF8093C600F6CF60919B
:10465000540270915502809156029091570242E0A7
:104660000E94DD56E3E1F4E08191882339F09091D6
:10467000C00095FFFCCF8093C600F6CF2CE933E550
:1046800049E45EE3609142027091430280914402EA
:10469000909145020E94FBEB42E00E94DD56E7E16B
:1046A000F4E08191882339F09091C00095FFFCCF10
:1046B0008093C600F6CF2CE933E549E45EE36091D0
:1046C00058027091590280915A0290915B020E94A7
:1046D00022EF42E00E94DD568091C00085FFFCCFB2
:1046E0008AE08093C600D4C59091C00095FFFCCFAE
:1046F0008093C600319684918111F6CFEBE1F4E00E
:104700008191882339F09091C00095FFFCCF809370
:10471000C600F6CF8091C00085FFFCCF8AE0809371
:10472000C600B6C580E50E94E793882351F00E9439
:10473000129460938602709387028093880290930C
:10474000890289E40E94E793882381F00E941294F1
:104750002CE933E549E45EE30E9422EF60933E02D8
:1047600070933F02809340029093410284E40E9440
:10477000E793882381F00E9412942CE933E549E401
:104780005EE30E94FBEB609382027093830280934E
:104790008402909385020E94E8ABEFE6FCE08491EE
:1047A000882341F09091C00095FFFCCF8093C60014
:1047B0003196F5CFEFE0F4E08191882339F09091C4
:1047C000C00095FFFCCF8093C600F6CF60918602B3
:1047D00070918702809188029091890242E00E9444
:1047E000DD56E3E1F4E08191882339F09091C00037
:1047F00095FFFCCF8093C600F6CF2CE933E549E462
:104800005EE360913E0270913F0280914002909180
:1048100041020E94FBEB42E00E94DD56E7E1F4E03A
:104820008191882339F09091C00095FFFCCF80934F
:10483000C600F6CF2CE933E549E45EE360918202DD
:104840007091830280918402909185020E9422EFF0
:1048500042E00E94DD568091C00085FFFCCF8AE0D7
:104860008093C60015C583E50E94E793882319F05D
:104870000E94129403C060E070E0CB0160937E025E
:1048800070937F02809380029093810201C585E43A
:104890000E94E793882321F00E94FA937C0102C0D2
:1048A000E12CF12C83E40E94E793882321F00E94FD
:1048B000FA936C0103C035E0C32ED12C85E50E942C
:1048C000E793882329F00E94FA9301E0892B09F4E9
:1048D00000E083E50E94E793882319F00E94129478
:1048E00006C0F7FC0AC060E070E086E193E4E114E2
:1048F000F10439F41092A10604C060E070E08CE885
:1049000092E41092CD151092CC159601A7010E9449
:1049100077E181E090E09093CD158093CC15B8C4F9
:104920000E9496CEB5C40E9490720E947271B0C46B
:104930000E94907280E00E94DA72AAC40E9450CE57
:10494000A7C40E94DF4AA4C40E94CB4EA1C40E9407
:10495000FA4C9EC483E50E94E793182F882351F0F8
:104960000E94129411E020E030E0A9010E9404F3BB
:10497000811110E0812F0E9437A28AC4EFE6FCE08B
:104980008491882341F09091C00095FFFCCF8093E3
:10499000C6003196F5CFECE8F3E08491882341F02E
:1049A0009091C00095FFFCCF8093C6003196F5CF63
:1049B0008091C00085FFFCCF80E28093C6008AE52D
:1049C0000E94E793882309F44BC00E9412946B0164
:1049D0007C0120E030E040E050EC0E9445ED87FD96
:1049E00018C020E030E040E050E4C701B6010E946A
:1049F00004F3181674F0C0924E02D0924F02E09267
:104A00005002F092510242E0C701B6010E94DD5609
:104A100033C0E4E8F3E08491882341F09091C00032
:104A200095FFFCCF8093C6003196F5CF6EEF7FEFF8
:104A30008FEF9FEF0E94B756ECE7F3E08491882355
:104A400041F09091C00095FFFCCF8093C600319655
:104A5000F5CF62E070E080E090E00E94B7560CC0B5
:104A600040914E0250914F0260915002709151025C
:104A700089E793E00E94CE978091C00085FFFCCF2C
:104A80008AE08093C60004C420917E0230917F02A8
:104A90004091800250918102609161147091621482
:104AA00080916314909164140E9404F387FF22C0E4
:104AB000ECE4FCE08491882341F09091C00095FFE4
:104AC000FCCF8093C6003196F5CFEDEBF3E08491F7
:104AD000882341F09091C00095FFFCCF8093C600E1
:104AE0003196F5CF8091C00085FFFCCF8AE080939E
:104AF000C600CEC38DEA93E00E94E188E0E7F7E0CC
:104B000081E896E08E010F5F1F4F419151916191B5
:104B10007191DC014D935D936D937D93CD01D8012F
:104B20004D935D936D937D938D01B7E0E038FB0766
:104B300061F7CD84DE84EF84F88820E030E040EA3D
:104B400050E4C701B6010E941FEB60938D0670937D
:104B50008E0680938F069093900660E070E08AEF57
:104B600095E40E9492740E9496CE85E40E94E79399
:104B7000882379F00E9412949B01AC0160918D060C
:104B800070918E0680918F06909190060E941FEB87
:104B900008C020E030E040EA50E4C701B6010E94BE
:104BA0001EEB60938D0670938E0680938F06909314
:104BB000900660E070E08AEF95E40E9492740E9493
:104BC00096CE88E50E94E793882359F00E941294BC
:104BD0006093810670938206809383069093840687
:104BE0000CC080E090E0A8E4B3E480938106909349
:104BF0008206A0938306B093840689E50E94E7931A
:104C0000882359F00E94129460938506709386065B
:104C1000809387069093880608C0109285061092AC
:104C20008606109287061092880660E070E08AEF90
:104C300095E40E9492740E9496CE8AE50E94E793C2
:104C4000882369F00E9412949B01AC01609189064F
:104C500070918A0680918B0690918C0608C020E0A6
:104C600030E048EC51E469857A858B859C850E940B
:104C70001FEB6093890670938A0680938B0690934E
:104C80008C0660E070E08AEF95E40E9492740E94C6
:104C900096CE20E030E04CE052E460918D067091B9
:104CA0008E0680918F06909190060E941FEB609374
:104CB0008D0670938E0680938F069093900660E029
:104CC00070E08AE795E40E9492740E9496CE8CE48C
:104CD0000E94E793882379F00E9412949B01AC0113
:104CE00060918D0670918E0680918F06909190064E
:104CF0000E941FEB0EC020E030EC45E054E46091D0
:104D00008D0670918E0680918F06909190060E947C
:104D10001EEB60938D0670938E0680938F069093A2
:104D2000900660E070E08AEF95E40E9492740E9421
:104D300096CE0E9496CE129A6CE271E080E090E0EE
:104D40000E94A9828CE993E00E94E18883E090E0D0
:104D50009093CD158093CC15812C912C540180918A
:104D6000CA1482FD22C00E94E1828B019C010819B5
:104D700019092A093B0937FD14C06DA37EA38FA32F
:104D800098A70E940CE00E94858A6DA17EA18FA148
:104D900098A54B015C01E0ED8E0EE7E09E1EA11C84
:104DA000B11C81E00E9455B4DACF81E090E090938D
:104DB000CD158093CC150E94858A10927C071092A5
:104DC0007D0710927E0710927F070E9496CE0E9468
:104DD000C5741092C914CD84DE84EF84F88820E075
:104DE00030E048E452E4C701B6010E941EEB609334
:104DF0008D0670938E0680938F069093900660E0E8
:104E000070E08AEF95E40E9492740E9496CE6CE264
:104E100071E080E090E00E94A982C0928D06D0925D
:104E20008E06E0928F06F092900660E070E08AE7CE
:104E300094E40E9492740E9496CE6CE271E080E04D
:104E400090E00E94A98220E030E048E151E4C701EF
:104E5000B6010E941EEB60938D0670938E068093C0
:104E60008F069093900660E070E08AEF95E40E94D0
:104E700092740E9496CE6CE271E080E090E00E9415
:104E8000A98283E090E09093CD158093CC1580911A
:104E9000CA1482FD22C00E94E1828B019C01081984
:104EA00019092A093B0937FD14C06DA37EA38FA3FE
:104EB00098A70E940CE00E94858A6DA17EA18FA117
:104EC00098A54B015C01F0ED8F0EF7E09F1EA11C31
:104ED000B11C81E00E9455B4DACF80918D0690918B
:104EE0008E06A0918F06B091900680937C079093D8
:104EF0007D07A0937E07B0937F070E9455D30E9441
:104F0000C57489819A81AB81BC818093810690931D
:104F10008206A0938306B09384068D819E81AF8123
:104F2000B8858093850690938606A0938706B093F4
:104F3000880660E070E08AEF95E40E9492748985AB
:104F40009A85AB85BC858093890690938A06A09349
:104F50008B06B0938C0660E070E08AEF95E40E94C7
:104F6000927426E636E646E65FE3C701B6010E9484
:104F70001EEB60938D0670938E0680938F06909340
:104F800090060E94C5740E9496CE1092A90681E0F8
:104F900090E090930702809306020E9496CE60E014
:104FA00089E993E00E94CB880E94F68871C10E9433
:104FB00096CE8091700790917107A0917207B09181
:104FC00073078093910690939206A0939306B093F3
:104FD00094068091740790917507A0917607B0911F
:104FE00077078093950690939606A0939706B093C3
:104FF00098068091780790917907A0917A07B091EF
:105000007B078093990690939A06A0939B06B09392
:105010009C0660917C0770917D0780917E0790913E
:105020007F0760939D0670939E0680939F069093E2
:10503000A00620E030E040E751E40E941EEB6093C0
:105040008D0670938E0680938F069093900660E095
:1050500070E48CE995E40E9492740E9496CE80E000
:1050600090E0A8E4B3E48093810690938206A09335
:105070008306B093840680E090E0A0E2B1E48093E0
:10508000850690938606A0938706B093880660E015
:1050900070E48CE995E40E9492740E9496CE20E020
:1050A00030E040E251E46091990670919A06809157
:1050B0009B0690919C060E941FEB6093890670935B
:1050C0008A0680938B0690938C0660E070E48CE9EE
:1050D00095E40E9492740E9496CE809181069091F0
:1050E0008206A0918306B091840680937007909306
:1050F0007107A0937207B093730780918506909112
:105100008606A0918706B0918806809374079093D5
:105110007507A0937607B0937707809189069091E1
:105120008A06A0918B06B0918C06809378079093A5
:105130007907A0937A07B0937B0780918D069091B1
:105140008E06A0918F06B091900680937C07909375
:105150007D07A0937E07B0937F070E9496CE98C0EC
:10516000662371F1EFE6FCE08491882341F0909191
:10517000C00095FFFCCF8093C6003196F5CF80919B
:10518000C00085FFFCCF84E58093C60070E080E01E
:1051900090E04AE00E944256EBE1F4E081918823DE
:1051A00039F09091C00095FFFCCF8093C600F6CFF8
:1051B0008091C00085FFFCCF8AE08093C60068C064
:1051C0001092A10686E40E94E793882399F00E943A
:1051D00012946B017C0120E030E0A9010E9445EDB2
:1051E000181644F4C0920202D0920302E092040224
:1051F000F0920502EFE6FCE08491882341F0909163
:10520000C00095FFFCCF8093C6003196F5CFECE24D
:10521000F4E08191882339F09091C00095FFFCCF94
:105220008093C600F6CF60E070E0CB010E94B756D5
:105230008091C00085FFFCCF8AE08093C60028C023
:1052400010E027C00E9496CE88E50E94E79388234D
:1052500019F05F9A1092B40789E50E94E7938823BA
:1052600019F08A9A1092B5078AE50E94E79388237D
:1052700051F09FB7F89480910801816080930801F4
:105280009FBF1092B60785E40E94E7938111129A9E
:1052900011E0A0900602B090070221E0A216B1042E
:1052A00009F068C0C0905F16D09060161C141D04F1
:1052B0000CF060C0E090A116F090A216C701880F14
:1052C000991F880F991FDC01AF59B94E4D014D90C0
:1052D0005D906D907C9020E030E0A901C301B201A7
:1052E0000E9404F3882389F1A30192016091780759
:1052F0007091790780917A0790917B070E9445ED24
:1053000087FD38C01092070210920602B1E0CB1A56
:10531000D108D0926016C0925F16F40110821182FB
:1053200012821382C701019660E170E00E9403EBD4
:105330009093A2168093A11685EE93E09093810737
:10534000809380070E946C9415C0F1E0CF1AD108B9
:10535000D0926016C0925F16C701019660E170E0BE
:105360000E9403EB9093A2168093A116B0920702BD
:10537000A09206028091AE0C882399F0959911C0F5
:105380008091A90681110DC081E08093A9068AEE63
:1053900093E090938107809380070E946C940E9411
:1053A00096CE1092CD151092CC15112311F40C94B9
:1053B00038140E94EEB96CC09091C00095FFFCCFEC
:1053C0008093C600319684918111F6CFE2EFF3E02D
:1053D0008491882341F09091C00095FFFCCF809389
:1053E000C6003196F5CFE091AA06F091AB06819107
:1053F000882339F09091C00095FFFCCF8093C600C0
:10540000F6CFEFEEF3E08491882399F29091C000FB
:1054100095FFFCCF8093C6003196F5CF0E94FA939A
:10542000AC01990F660B770B40932A0F50932B0F0B
:1054300060932C0F70932D0F89E79EE00E94638B81
:1054400027CF0E94FA93AC01990F660B770B40931C
:105450002A0F50932B0F60932C0F70932D0F89E719
:105460009EE00E94638B0C9459190E9408DB0C94F7
:10547000A71B0E9412940E9463EC709346146093E1
:1054800045140C94C61C0E9496CE0E9408B400CF0E
:10549000A8960FB6F894DEBF0FBECDBFDF91CF91B7
:1054A0001F910F91FF90EF90DF90CF90BF90AF9042
:1054B0009F908F907F906F905F904F903F902F9034
:1054C00008952F923F924F925F926F927F928F92A8
:1054D0009F92AF92BF92CF92DF92EF92FF920F9383
:1054E0001F93CF93DF93CDB7DEB7CD59D1090FB658
:1054F000F894DEBF0FBECDBF0DB71EB7C657DF4F46
:1055000019830883CA58D0408091491685FF23C06B
:10551000E7E8F8E08491882341F09091C00095FF7E
:10552000FCCF8093C6003196F5CF8091C00085FFF7
:10553000FCCF8AE08093C600E6E8F8E084918823F7
:1055400041F09091C00095FFFCCF8093C60031964A
:10555000F5CF0E94994880915E14882321F08091B4
:105560005F14811104C00E944B710C94144186E5B4
:105570000E94E793882339F00E94FA93A7969FAF81
:105580008EAFA79706C021E030E0A7963FAF2EAFC1
:10559000A797A7964EAD5FADA79745305105B0F0E0
:1055A000EFE5F8E08491882341F09091C00095FFE9
:1055B000FCCF8093C6003196F5CF8091C00085FF67
:1055C000FCCF8AE08093C6000C94144184E40E94CE
:1055D000E793EC968FAFEC9785E40E94E793E4960F
:1055E0008FAFE497A7968EAD9FADA79703977CF4F6
:1055F00084E50E94E793C257DF4F8883CE58D0409E
:10560000A796AEADBFADA797AB2B69F106C0B1E0D1
:10561000C257DF4FB883CE58D040E8E4F8E0849119
:10562000882341F09091C00095FFFCCF8093C60085
:105630003196F5CFEC96EFADEC97EE23A1F0E0E3D9
:10564000F8E08491882341F09091C00095FFFCCF51
:105650008093C6003196F5CF8091C00085FFFCCFC6
:105660008AE08093C60080E50E94E7938823B9F022
:105670000E94FA936D969FAF8EAF6D970297ACF430
:10568000E8EFF7E08491882311F40C941441909191
:10569000C00095FFFCCF8093C6003196F3CF04E0A5
:1056A00010E06D961FAF0EAF6D9783E50E94E793F4
:1056B000882319F00E94FA9302C088E59BE1909339
:1056C0000902809308028CE40E94E793882339F052
:1056D0000E94FA9329969FAF8EAF299706C022E3C6
:1056E00030E029963FAF2EAF299782E50E94E793DD
:1056F000882321F00E94FA935C0103C048E7A42E9E
:10570000B12C86E40E94E793882321F00E94FA934B
:105710007C0103C032E3E32EF12C82E40E94E79384
:10572000882321F00E94FA938C0102C008E710E060
:1057300029964EAD5FAD299731E057FD06C0C501F2
:105740000297481759070CF430E021E053EDA516F5
:10575000B1044CF429968EAD9FAD299702968A1517
:105760009B050CF420E099249394F7FC06C0C80133
:105770000297E816F9060CF4912CDD24D394033D2E
:10578000110534F4C7010296801791070CF4D12C4F
:1057900031110CC0222329F089EE97E00E94C46DDC
:1057A00015C0911013C0D11017C020C081EF97E031
:1057B000C356DF4F2883CD59D0400E94C46DC356D5
:1057C000DF4F2881CD59D0402111E6CF992021F01B
:1057D00081EE97E00E94C46DDD2011F40C94144119
:1057E0008AED97E00E94C46D0C941441EC968FAD45
:1057F000EC9781116FC08091491685FF27C0CE01BB
:1058000001960E9498DCECEBF7E08491882341F04C
:105810009091C00095FFFCCF8093C6003196F5CFE4
:10582000BE016F5F7F4F8EE394E00E9418DEEEE9C9
:10583000F7E08491882341F09091C00095FFFCCF60
:105840008093C6003196F5CF0E9499480E942AD3D2
:10585000CE0101960E9498DC89819A81AB81BC813E
:105860008093700790937107A0937207B0937307AA
:105870008D819E81AF81B885809374079093750761
:10588000A0937607B093770789859A85AB85BC8509
:105890008093780790937907A0937A07B0937B075A
:1058A0008091491685FF14C0E1E8F7E084918823D0
:1058B00041F09091C00095FFFCCF8093C6003196D7
:1058C000F5CFBE016F5F7F4F84E594E00E9418DE44
:1058D0000E9482730E9496CE0E943C7380E090E00A
:1058E000A0E7B3E48093020290930302A093040222
:1058F000B09305026D96AEADBFAD6D971197A996A9
:10590000BFAFAEAFA997C5012996EEADFFAD299700
:105910008E1B9F0BBD010E9403EBE1967FAF6EAF24
:10592000E1976D964EAD5FAD6D97449F9001459F99
:10593000300D300D11243AAF29AF220F331FE396FB
:105940003FAF2EAFE397C901A9ADBAAD8A0F9B1F38
:10595000FC01EE0FFF1FEE0FFF1FA396FFAFEEAF90
:10596000A3972DB73EB72E1B3F0B0FB6F8943EBF43
:105970000FBE2DBF4DB75EB74F5F5F4FAD965FAFA8
:105980004EAFAD971197C457DF4FB983A883CC585A
:10599000D04089AD9AAD880F991F880F991F259621
:1059A0009FAF8EAF2597ADB7BEB7A81BB90B0FB68B
:1059B000F894BEBF0FBEADBFEDB7FEB73196EE9601
:1059C000FFAFEEAFEE972DB73EB749AD5AAD241BF2
:1059D000350B0FB6F8943EBF0FBE2DBF8DB79EB7E7
:1059E0000196C857DF4F99838883C858D0406C967A
:1059F0009FAD6C97917060969FAF6097C8018E19AC
:105A00009F09A9966EAD7FADA9970E9403EBC2587E
:105A1000DF4F79836883CE57D0406796FFAEEEAEF6
:105A20006797ACEAB6E06F96BFAFAEAF6F971CAEAC
:105A30001BAE212C312CCC57DF4F188219821A82D1
:105A40001B82C458D0406796EEADFFAD6797BF018B
:105A5000FF0F880B990B0E940AF34B015C016096C3
:105A6000FFAD6097F11115C0A9960EAD1FADA997B6
:105A700063961FAF0EAF63972FEF3FEFA5963FAF33
:105A80002EAFA5974FEF5FEF65965FAF4EAF65976F
:105A900012C06D968EAD9FAD6D9765969FAF8EAF20
:105AA0006597A1E0B0E0A596BFAFAEAFA5976396AE
:105AB0001FAE1EAE639781E06096BFAD6097B827BA
:105AC0006096BFAF6097A5960EAD1FADA597E19606
:105AD0002EAD3FADE197029FF001039FF00D129FA5
