:100000000C946A130C949B130C949B130C949B13E9
:100010000C949B130C949B130C949B130C949B13A8
:100020000C949B130C949B130C949B130C949B1398
:100030000C949B130C949B130C949B130C949B1388
:100040000C949B130C9439780C949B130C949B1375
:100050000C949B130C949B130C94EC8D0C941753E1
:100060000C949B130C94A1510C949B130C949B1314
:100070000C949B130C949B130C949B130C949B1348
:100080000C9446800C949B130C949B130C949B1320
:100090000C949B130C949B130C949B130C949B1328
:1000A0000C949B130C949B130C9418800C949B132E
:1000B0000C949B130C949B130C949B130C94EA7F4D
:1000C0000C949B130C949B130C949B130C949B13F8
:1000D0000C949B130C949B130C949B130C949B13E8
:1000E0000C949B13335238523D5247525152CA52CC
:1000F0005B5263526B5275527F5289529852A25290
:10010000CA52AC52B652C052AE70B170A070A47058
:10011000AA70E870B570B970BF70C370C770CD7049
:10012000D170D570E870DB70DF70E3704A8E5A8E44
:10013000798E898EA48EA98EAC8EB18EB48EB98E36
:10014000BC8EC18ECB8E084AD73B3BCE016E84BCA1
:10015000BFFDC12F3D6C74319ABD56833DDA3D0021
:10016000C77F11BED9E4BB4C3E916BAAAABE00006A
:1001700000803F05A84CCDB2D44EB93836A9020C48
:1001800050B9918688083CA6AAAA2ABE0000008021
:100190003F004C4556454C494E4700434F4D4D5549
:1001A0004E49434154494F4E0044525952554E0016
:1001B0004552524F525300494E464F004543484F17
:1001C0000020746F6F206C6F6E6720657874727595
:1001D00073696F6E2070726576656E746564002059
:1001E000636F6C6420657874727573696F6E2070CC
:1001F000726576656E74656400454E4453544F5085
:10020000535F4F4E4C595F464F525F484F4D494EDA
:100210004720656E61626C655F656E6473746F70B4
:10022000732866616C736529005A2070726F62656D
:10023000206F75742E20626564005A2070726F62A0
:1002400065206F75742E2062656400205A3A200084
:1002500020593A200042656420583A2000526573C4
:10026000756D696E67207072696E7400576169748C
:1002700020666F7220757365722E2E2E00544553C2
:1002800054004E6F206D6F76652E005344207072BF
:10029000696E74696E67206279746520004E6F74B0
:1002A000205344207072696E74696E670046696CF1
:1002B000652064656C657465643A0044656C6574BA
:1002C000696F6E206661696C65642C2046696C6597
:1002D0003A20006F70656E206661696C65642C2041
:1002E00046696C653A20002569206D696E2C2025D1
:1002F00069207365630048656174696E672E2E2EF0
:1003000000BC01B701B001A9019B0192016F6666B3
:100310000044454255473A004B494C4C45442E2039
:10032000007A5F6D696E3A2000795F6D696E3A20E0
:1003300000785F6D696E3A20004D31343520533CB2
:10034000696E6465783E206F7574206F66207261F7
:100350006E67652028302D31290053657474696EED
:10036000672054726176656C20416363656C6572C9
:100370006174696F6E3A200053657474696E67200A
:100380005265747261637420416363656C65726168
:1003900074696F6E3A200053657474696E672050FB
:1003A00072696E7420416363656C65726174696F14
:1003B0006E3A200053657474696E67205072696EDE
:1003C0007420616E642054726176656C20416363B1
:1003D000656C65726174696F6E3A20004F66667372
:1003E000657473206170706C696564004572723A5F
:1003F00020546F6F206661722100546F6F20666118
:10040000722066726F6D207265666572656E6365D7
:1004100020706F696E740000000000000000000092
:100420000000003A20007A5F6D61783A20007A5F20
:100430006D696E3A20002B2F2D205A204F6666736F
:100440006574006F6B005761697420666F72207568
:100450007365722E2E2E004368616E676520666993
:100460006C616D656E74004D36303020486F746578
:100470006E6420746F6F20636F6C6420746F2063F0
:1004800068616E67652066696C616D656E74004DAC
:10049000363030004D36303000220A00556E6B6E1B
:1004A0006F776E20636F6D6D616E643A2022003C41
:1004B0003C3C2070726F62655F707400205A3A2075
:1004C0000020593A200042656420583A20003E201E
:1004D00050726F626553746F77202873746F775F03
:1004E0007A5F70726F62652077696C6C20646F2030
:1004F0005A20526169736529003E2050726F62650F
:100500004465706C6F79002C20003E20646F5F6240
:100510006C6F636B696E675F6D6F76655F746F5F3D
:10052000787920003E20646F5F626C6F636B696E48
:10053000675F6D6F76655F746F5F7A20005A205237
:100540006169736520746F207A5F6265666F72659A
:100550002000003E2050726F6265416374696F6EC7
:100560003A0070726F62655F7074203E3E3E003CE0
:100570003C3C207365745F6265645F6C6576656C96
:100580005F6571756174696F6E5F6C7371003E3E7B
:100590003E207365745F6265645F6C6576656C5F51
:1005A0006571756174696F6E5F6C7371003E3E3E7C
:1005B000207365745F6265645F6C6576656C5F650A
:1005C00071756174696F6E5F6C7371003C3C3C20A7
:1005D00067636F64655F47323900473120583935AA
:1005E00020593130204633303030004731205839DF
:1005F0003520593130204633303030003E20636F93
:1006000072726563746564205A20696E20473239BE
:10061000003E204146544552206170706C795F72F3
:100620006F746174696F6E5F78797A203E207A5FAB
:10063000746D7020203D20003E204245464F5245BB
:10064000206170706C795F726F746174696F6E5F36
:1006500078797A203E207265616C5F7A203D2000B7
:100660003E204245464F5245206170706C795F7262
:100670006F746174696F6E5F78797A203E207A5F5B
:10068000746D7020203D2000202B00200A436F72E3
:1006900072656374656420426564204865696768B3
:1006A000742076732E2042656420546F706F6C6FD7
:1006B00067793A200A00202B002028302C30290AA4
:1006C000002020204F2D2D2046524F4E54202D2DFE
:1006D0002B0A002020207C202020202020202020E9
:1006E00020207C0A002020207C20202020282D296A
:1006F000202020207C20540A002054207C20202010
:1007000020202020202020207C20480A0020462075
:100710007C20282D29204E20282B29207C20470AA8
:10072000002045207C202020202020202020202068
:100730007C20490A00204C207C20202020282B29C6
:10074000202020207C20520A002020207C202020F5
:1007500020202020202020207C0A002020202B2D5B
:100760002D2D204241434B202D2D2B0A00200A42E3
:1007700065642048656967687420546F706F67729C
:10078000617068793A200A004D65616E206F6620BD
:1007900073616D706C656420706F696E74733A205C
:1007A0000020643A200020623A200045716E2063E8
:1007B0006F656666696369656E74733A20613A2095
:1007C000003E2070726F62696E6720636F6D706C9F
:1007D000657465003E2070203D20003E2063792036
:1007E0003D20003E206378203D20003E207A203DC1
:1007F00020003E2076203D20003E2078203D200035
:100800007A5F6265666F7265203D20286265666F5B
:1008100072652920007A5F6265666F7265203D20EF
:10082000286265747765656E2920004146544552FB
:10083000206D61747269782E7365745F746F5F697F
:1008400064656E74697479004245464F5245206D67
:1008500061747269782E7365745F746F5F69646523
:100860006E74697479004245464F5245206D61743B
:100870007269782E7365745F746F5F6964656E74F6
:100880006974790028422961636B00284629726FD8
:100890006E74002852296967687400284C296566BF
:1008A00074003F4E756D626572206F662070726FC6
:1008B000626564202850296F696E74732069732003
:1008C000696D706C61757369626C65202832206D8A
:1008D000696E696D756D292E0A0052756E6E696EAE
:1008E0006720696E204452592D52554E206D6F6419
:1008F0006500473239204175746F20426564204C91
:100900006576656C696E670A003F285629657262D4
:100910006F7365204C6576656C20697320696D7016
:100920006C61757369626C652028302D34292E0046
:100930000067636F64655F473239203E3E3E0029A1
:10094000002C20002C20003A2028004E6F204C69FB
:100950006E65204E756D62657220776974682063DC
:100960006865636B73756D2C204C617374204C69E2
:100970006E653A20004B494C4C45442E20005354A0
:100980004F505045442E20005072696E746572209D
:1009900073746F707065642064756520746F206572
:1009A00072726F72732E20466978207468652065B4
:1009B00072726F7220616E6420757365204D3939D3
:1009C0003920746F20726573746172742E202854FC
:1009D000656D7065726174757265206973207265EA
:1009E0007365742E20536574206974206166746584
:1009F000722072657374617274696E6729004E6F3C
:100A000020436865636B73756D2077697468206C2B
:100A1000696E65206E756D6265722C204C61737411
:100A2000204C696E653A2000636865636B73756D71
:100A3000206D69736D617463682C204C6173742040
:100A40004C696E653A20004C696E65204E756D628A
:100A50006572206973206E6F74204C617374204C32
:100A6000696E65204E756D6265722B312C204C616C
:100A70007374204C696E653A20004D313130004D61
:100A8000383420582059205A204500256920686FA5
:100A9000757273202569206D696E757465730044E5
:100AA0006F6E65207072696E74696E672066696C1E
:100AB000650020496E76616C696420657874727592
:100AC0006465722000000052430000524300007031
:100AD00043000000000000000000000000576172A9
:100AE0006E696E673A20486F6D696E672042756D5A
:100AF000702044697669736F72203C2031007379ED
:100B00006E635F706C616E5F706F736974696F6E36
:100B10000073657475705F666F725F656E64737481
:100B20006F705F6D6F7665203E20656E61626C65EB
:100B30005F656E6473746F707328747275652900D5
:100B400072756E5F7A5F70726F626500636C65616B
:100B50006E5F75705F61667465725F656E647374F5
:100B60006F705F6D6F7665203E20454E4453544F45
:100B700050535F4F4E4C595F464F525F484F4D495F
:100B80004E47203E20656E6473746F70735F6E6FA6
:100B9000745F686F6D696E672829006465706C6F9B
:100BA000795F7A5F70726F62650052616973652068
:100BB0005A20286166746572292062792000737456
:100BC0006F775F7A5F70726F626500486F6D652046
:100BD000582F59206265666F7265205A00486F6D04
:100BE0006520582F59206265666F7265205A00296A
:100BF000003C3C3C207365745F617869735F697386
:100C00005F61745F686F6D652800003E20686F6DDE
:100C1000655F6F66667365745B617869735D3D3DA2
:100C2000003E207A70726F62655F7A6F66667365E8
:100C3000743D3D0029203E3E3E007365745F61783F
:100C400069735F69735F61745F686F6D6528002900
:100C5000003C3C3C20686F6D656178697328003EFC
:100C600020534552564F5F454E4453544F505320E6
:100C70003E2053746F7720776974682073657276AD
:100C80006F2E6D6F76652829003E20534552564FD2
:100C90005F4C4556454C494E47203E202873746FA3
:100CA000775F7A5F70726F6265282929003E204164
:100CB00046544552207365745F617869735F697348
:100CC0005F61745F686F6D65003E2054524947470D
:100CD000455220454E4453544F50003E20656E61AE
:100CE000626C655F656E6473746F7073287472757F
:100CF000652900CDCC4C3FCDCC4C3FCDCC4C3F3EBC
:100D000020656E61626C655F656E6473746F70738D
:100D10002866616C7365290000005243000052434D
:100D200000007043FFFFFF29003E3E3E20686F6DCC
:100D300065617869732800536C6565702E2E2E00EE
:100D400020706F736974696F6E206F7574206F66A1
:100D50002072616E67652E003F50726F62652000E1
:100D6000436172642072656D6F76656400436172E1
:100D70006420696E736572746564002062797465BD
:100D80007329002073746F726564207365747469CD
:100D90006E677320726574726965766564202800D9
:100DA00048617264636F6465642044656661756C54
:100DB000742053657474696E6773204C6F61646549
:100DC000640020204D383531205A005A2D50726F62
:100DD0006265204F666673657420286D6D293A0040
:100DE00020204D3230302044300020204D32303031
:100DF0002044002044697361626C65640046696C3C
:100E0000616D656E742073657474696E67733A0002
:100E100020440020490020204D3330342050002051
:100E2000440020490020204D3330312050005049EB
:100E3000442073657474696E67733A00204600201D
:100E4000420020204D3134352053312048002046C7
:100E50000020420020204D313435205330204800FE
:100E60004D6174657269616C20686561747570208C
:100E7000706172616D65746572733A00205A00206A
:100E8000590020204D323036205800486F6D6520C3
:100E90006F666673657420286D6D293A00204500E1
:100EA000205A0020580020420020540020204D32BB
:100EB0003035205300416476616E6365642076614D
:100EC000726961626C65733A20533D4D696E2066AC
:100ED0006565647261746520286D6D2F73292C20FF
:100EE000543D4D696E2074726176656C206665654F
:100EF000647261746520286D6D2F73292C20423D2A
:100F00006D696E696D756D207365676D656E7420B2
:100F100074696D6520286D73292C20583D6D6178AA
:100F2000696D756D205859206A65726B20286D6D4A
:100F30002F73292C20205A3D6D6178696D756D20C5
:100F40005A206A65726B20286D6D2F73292C202022
:100F5000453D6D6178696D756D2045206A65726BE0
:100F600020286D6D2F73290020540020520020206E
:100F70004D323034205000416363656C657261749A
:100F8000696F6E733A20503D7072696E74696E6756
:100F90002C20523D7265747261637420616E64200E
:100FA000543D74726176656C00204500205A002023
:100FB000590020204D3230312058004D6178696D44
:100FC000756D20416363656C65726174696F6E2035
:100FD000286D6D2F7332293A00204500205A0020D9
:100FE000590020204D3230332058004D6178696D12
:100FF000756D2066656564726174657320286D6D1A
:101000002F73293A00204500205A00205900202043
:101010004D3932205800537465707320706572200A
:10102000756E69743A006175746F25692E67004D9D
:101030003234004D32332025730057726974696E63
:101040006720746F2066696C653A20002E0A006F75
:1010500070656E206661696C65642C2046696C65FC
:101060003A20002E0A0046696C652073656C656342
:10107000746564002053697A653A200046696C659E
:10108000206F70656E65643A20006F70656E206633
:1010900061696C65642C2046696C653A20006F704C
:1010A000656E206661696C65642C2046696C653AE2
:1010B00020004E6F772066726573682066696C65E4
:1010C0003A20004E6F7720646F696E672066696C06
:1010D000653A20002220706F7300222070617265D3
:1010E0006E743A2200535542524F5554494E452092
:1010F00043414C4C207461726765743A22004B493D
:101100004C4C45442E2000747279696E6720746FD0
:101110002063616C6C207375622D67636F6465205A
:1011200066696C6573207769746820746F6F206DD1
:10113000616E79206C6576656C732E204D41582068
:101140006C6576656C2069733A000000210024000C
:1011500027002A002D0030003300010100000401A7
:1011600007010A0100002200250028002B002E00A4
:101170003100340002010000050108010B010000EC
:1011800020002300260029002C002F00320000013F
:10119000000003010601090105050505070508080A
:1011A0000808020202020A0A0808040404040101F1
:1011B0000101010101010303030303030303040706
:1011C00007070C0C0C0C0C0C0C0C0202020206069D
:1011D0000606060606060B0B0B0B0B0B0B0B010290
:1011E0001020200808102040102040800201020139
:1011F00008040201010204081020408080402010F1
:101200000804020180040201804020100804020149
:1012100008040201010204081020408001020408B1
:101220001020408000000A0B02090C0D0E08070375
:1012300004010000000000000000000000000000A9
:10124000000000000000000000000000000000009E
:10125000121110000000000000000000000000005B
:10126000000000000000000000004B494C4C4544C9
:101270002E2000202D20496E76616C6964206578EF
:10128000747275646572206E756D626572202100DE
:1012900020536F66747761726520526573657400C0
:1012A000205761746368646F6720526573657400CA
:1012B0002042726F776E206F75742052657365746B
:1012C000002045787465726E616C20526573657498
:1012D00000506F7765725570006572726F7220777B
:1012E000726974696E6720746F2066696C65004569
:1012F0006E6473746F7073202563202563202563EB
:1013000020256300205A3A0020593A0020583A001C
:10131000656E6473746F7073206869743A2000445A
:101320006F6E6520736176696E672066696C652EE5
:10133000004D32390053442063617264206F6B00AA
:101340006F70656E526F6F74206661696C656400C2
:10135000766F6C756D652E696E6974206661696C57
:101360006564004572726F723A00534420696E6979
:1013700074206661696C002200656E717565756523
:10138000696E672022006563686F3A0024F4D430E8
:1013900050C38E20C2A24017828B7011127A910D19
:1013A000816CD90AA861E108C758660761514306F4
:1013B0001E4B5D05C145A7041A411104093D980360
:1013C000713931034036DB0265339102D430540267
:1013D000802E1D02632CEE01752AC501B028A001E4
:1013E000102781018F2564012B244B01E022340159
:1013F000AC211F018D200D01801FFC00841EED001B
:10140000971DDF00B81CD200E61BC600201BBC00E5
:10141000641AB200B219A8000A19A0006A1899004B
:10142000D117910040178B00B516840031167E004D
:10143000B31579003A157300C7146F0058146A0089
:10144000EE1366008813630025135E00C7125B006D
:101450006C12570015125400C111510070114F0049
:1014600021114B00D61049008D1047004610440052
:1014700002104200C00F4000800F3E00420F3C00AF
:10148000060F3B00CB0E3800930E37005C0E350084
:10149000270E3400F30D3200C10D3100900D3000E5
:1014A000600D2E00320D2D00050D2C00D90C2B00E7
:1014B000AE0C2900850C29005C0C2700350C270098
:1014C0000E0C2600E80B2400C40B2400A00B230004
:1014D0007D0B23005A0B2100390B2100180B200033
:1014E000F80A1F00D90A1E00BB0A1E009D0A1D0033
:1014F000800A1D00630A1C00470A1B002C0A1B00FF
:10150000110A1A00F7091A00DD091900C4091900A7
:10151000AB091900920917007B091800630917002D
:101520004C09160036091600200916000A09150094
:10153000F5081500E0081400CC081400B8081400E1
:10154000A4081400900813007D0812006B08130013
:101550005808120046081200340811002308110030
:101560001208110001081100F0071000E007100038
:10157000D0071000C0071000B0070F00A10710002F
:1015800091070E0083070F0074070F0065070E0018
:1015900057070E0049070E003B070D002E070E00EF
:1015A00020070D0013070D0006070D00F9060C00BB
:1015B000ED060D00E0060C00D4060C00C8060C0079
:1015C000BC060C00B0060C00A4060B0099060C002B
:1015D0008D060B0082060B0077060B006C060B00D5
:1015E00061060A0057060B004C060A0042060A0074
:1015F00038060A002E060A0024060A001A060A0007
:101600001006090007060A00FD050900F405090097
:10161000EB050900E2050900D9050900D00509001C
:10162000C7050900BE050900B5050800AD0508009D
:10163000A50509009C050800940508008C05080014
:10164000840508007C050800740508006C05070087
:10165000650508005D050700560508004E050700F2
:101660004705070040050800380507003105070059
:101670002A050700230507001C05060016050700BC
:101680000F0507000805060002050700FB04060019
:10169000F5040700EE040600E8040600E204070073
:1016A000DB040600D5040600CF040600C9040600CA
:1016B000C3040600BD040600B7040600B10405001B
:1016C000AC040600A6040600A00405009B04060066
:1016D00095040500900406008A04050085040500B1
:1016E000800406007A0405007504050070040500F6
:1016F0006B04050066040500610405005C04050038
:1017000057040500520405004D0405004804050077
:10171000430405003E0404003A04050035040500B6
:10172000300404002C0405002704040023040500F1
:101730001E0404001A040400160405001104040029
:101740000D0404000904050004040400000404005E
:10175000FC030400F8030400F4030400F003040095
:10176000EC030400E8030400E4030400E0030400C5
:10177000DC030400D8030400D4030400D0030400F5
:10178000CC030400C8030300C503030024F404D9F8
:10179000201BC40C5C0E9804C4095F02650771012C
:1017A000F405F900FB04B30048048700C103690095
:1017B0005803550003034500BE023A00840231007D
:1017C00053022A002902250004022000E4011C0023
:1017D000C8011900AF01170098011400840113001B
:1017E000710110006101100051010E0043010D0054
:1017F00036010B002B010B0020010B001501090025
:101800000C01090003010800FB000800F3000800B8
:10181000EB000700E4000600DE000600D80006002A
:10182000D2000600CC000500C7000500C20005007C
:10183000BD000400B9000400B5000400B1000400BC
:10184000AD000400A9000400A5000300A2000300ED
:101850009F0004009B000300980003009500020015
:1018600093000300900003008D0002008B00030032
:10187000880002008600020084000300810002004C
:101880007F0002007D0002007B0002007900020060
:10189000770001007600020074000200720001006F
:1018A000710002006F0002006D0001006C00020078
:1018B0006A00010069000200670001006600010083
:1018C0006500010064000200620001006100010087
:1018D000600001005F0002005D0001005C0001008B
:1018E0005B0001005A00010059000100580001008E
:1018F000570001005600010055000100540001008E
:10190000530000005300010052000100510001008B
:10191000500001004F0001004E0000004E00010089
:101920004D0001004C0001004B0000004B00010085
:101930004A00010049000100480000004800010081
:10194000470001004600000046000100450000007D
:101950004500010044000100430000004300010075
:10196000420000004200010041000000410001006F
:10197000400001003F0000003F0001003E00000069
:101980003E0001003D0000003D0001003C00000061
:101990003C0000003C0001003B0000003B00010057
:1019A0003A0000003A00010039000000390001004F
:1019B0003800000038000000380001003700000047
:1019C000370001003600000036000000360001003C
:1019D0003500000035000000350001003400000033
:1019E0003400000034000100330000003300000028
:1019F000330001003200000032000000320001001C
:101A00003100000031000000310001003000000012
:101A100030000000300001002F0000002F00000007
:101A20002F0000002F0001002E0000002E000000FB
:101A30002E0001002D0000002D0000002D000000F0
:101A40002D0001002C0000002C0000002C000000E4
:101A50002C0001002B0000002B0000002B000000D8
:101A60002B0001002A0000002A0000002A000000CC
:101A70002A000100290000002900000029000000C0
:101A800029000000290001002800000028000000B3
:101A900028000000280000002800010027000000A6
:101AA0002700000027000000270000002700010099
:101AB000260000002600000026000000260000008E
:101AC0002600010025000000250000002500000080
:101AD0002500000025000000250001002400000072
:101AE0002400000024000000240000002400010065
:101AF000230000002300000023000000230000005A
:101B00002300000023000000230001002200000049
:101B1000220000002200000022000000220000003D
:101B2000220001002100000021000000210000002F
:101B30002100000021000000210000002100010020
:101B40002000000020000000200000002000000015
:101B50002000000020000000200000002000010004
:101B60001F0000001F0000001F0000001F000000F9
:101B70001F0000001F0000001F0001001E000000E9
:101B80001E0000001E0000001E0000004D38340042
:101B90004731205A313000473932205A30004D3811
:101BA0003420582059205A2045004D353030004708
:101BB0003932204530004D313039205330004D3618
:101BC000303000473238004D353030004732390070
:101BD000473239004732382052002B2F2D205A200F
:101BE0004F6666736574002B2F2D205A204F666652
:101BF000736574004175746F20426564204C65768E
:101C0000656C696E670053657420486F74656E6417
:101C1000204F666673657400473238004175746FF3
:101C200020486F6D65004368616E67652046696C8A
:101C3000616D656E74004261636B00553A20005619
:101C40003A20004D3A2000436F6E74726F6C004F63
:101C50006666004F6E2000456E61626C65204C45E3
:101C60004428443629004F6666004F6E2000456EBA
:101C700061626C65204865617442656400536574F7
:101C800020434620542E0053657420434620542E92
:101C900000416476616E636564006F6B006F6B007A
:101CA00041626F75740045787465726E616C204F87
:101CB0007074696F6E00416476616E636564005292
:101CC0006573746F7265206661696C736166650027
:101CD0004C6F6164206D656D6F72790053746F7223
:101CE00065206D656D6F7279004D383400446973FD
:101CF00061626C65205374657070657273004C4549
:101D000044202844362950574D004C45442028444F
:101D1000362950574D00486F74656E640042616308
:101D20006B005049442D44005049442D4400504913
:101D3000442D49005049442D49005049442D50003C
:101D40005049442D500046616E20737065656420D3
:101D50002825290046616E2073706565642028255A
:101D6000290042656400426564004E6F7A7A6C65B2
:101D7000004E6F7A7A6C6500436F6F6C646F776E9C
:101D800000436F6E74726F6C00626564002C207388
:101D9000797374656D2073746F7070656421204869
:101DA00065617465725F49443A20001D00BC02E61B
:101DB000012C01F80129010A0226011D022301312B
:101DC00002200146021D015C021A01730217018BF9
:101DD000021401A4021101BE020E01DA020B01F786
:101DE00002080115030501350302015703FF007ABC
:101DF00003FC00A003F900C603F600F003F3001B88
:101E000004F0004804ED007804EA00AA04E700DFCB
:101E100004E4001705E1005205DE009005DB00D167
:101E200005D8001606D5005F06D200AB06CF00FC31
:101E300006CC005107C900AB07C6000A08C3006EF4
:101E400008C000D708BD004609BA00BC09B7003772
:101E50000AB400B90AB100430BAE00D30BAB006B60
:101E60000CA8000C0DA500B40DA200650E9F001E6D
:101E70000F9C00E10F9900AD109600831193006351
:101E80001290004C138D0040148A003D15870044C9
:101E90001684005617810071187E0095197B00C2C8
:101EA0001A7800F81B7500361D72007B1E6F00C685
:101EB0001F6C00172169006C226600C42363001F99
:101EC0002560007A265D00D5275A002D295700830A
:101ED0002A5400D42B51001F2D4E00632E4B009E20
:101EE0002F4800CF304500F631420011333F00202B
:101EF000343C002135390016363600FC363300D527
:101F0000373000A0382D005C392A000B3A2700AD8D
:101F10003A2400413B2100C93B1E00453C1B00B652
:101F20003C18001C3D1500783D1200CA3D0F0014FE
:101F30003E0C00553E0900903E0600C33E0300F0F3
:101F40003E00004572723A204D415854454D5000B4
:101F50004D415854454D50207472696767657265EC
:101F600064004572723A204D494E54454D50004D23
:101F7000494E54454D5020747269676765726564B7
:101F8000004572723A204D494E54454D502042450D
:101F900044004D494E54454D502074726967676541
:101FA000726564004572723A204D415854454D5057
:101FB00020424544004D415854454D5020747269AB
:101FC00067676572656400002D2D2D2D2D2D2D2D3B
:101FD0002D2D2D2D2D0033445072696E74657220A5
:101FE0007C007C20002D2D2D2D2D2D2D2D2D2D2DEA
:101FF0002D2D004572726F722077726974696E6759
:1020000020746F20454550524F4D21002062797455
:102010006573290053657474696E67732053746F18
:102020007265642028002D2D3A2D2D002D2D2D00B8
:1020300020005A0020202020000200202020200024
:1020400002005265616479004E4F20534400020043
:10205000020020004E657874206174205A506F731E
:1020600020004E657874206174205A506F732000F0
:1020700064656C205A506F7300736574205A506FFA
:102080007300736574205A506F73004261636B0074
:102090007C3C3E5E2B3D3F2F5B5D3B2C2A225C004F
:1020A000205A3A0020593A0020436F756E74205828
:1020B0003A200020453A00205A3A0020593A005868
:1020C0003A00466C6F7700466C6F770046616E2071
:1020D0007370656564202825290046616E20737041
:1020E0006565642028252900426564004265640016
:1020F0004E6F7A7A6C65004E6F7A7A6C6500426139
:10210000636B004D6F76652058004D6F76652059E2
:10211000004D6F7665205A0045787472756465725B
:10212000004578747275646572004D6F7665205A4B
:10213000004D6F76652059004D6F76652058004D33
:102140006F76652061786973004D6F766520302E5B
:10215000316D6D004D6F766520316D6D004D6F7680
:10216000652031306D6D00416476616E6365640099
:102170004D6F766520486F74656E64004731205A54
:1021800032300A473238004D3530300053617665C1
:102190000053657420486F74656E64204F666673E3
:1021A00065740043616E63656C004731205A3330BB
:1021B0000A4732380A473932205A323000456E64B5
:1021C0002066696C65206C69737400426567696E8E
:1021D0002066696C65206C6973740020403A0020A9
:1021E00042403A00202F0020423A00202F00205485
:1021F0003A006F6B0048656174696E6720646F6EAA
:10220000652E003F0020573A0048656174696E678B
:102210002E2E2E0042656420646F6E652E003F00F6
:1022200020573A004265642048656174696E672EE4
:10223000004D3131332053004573746570732F6D39
:102240006D004573746570732F6D6D005A737465FE
:1022500070732F6D6D005A73746570732F6D6D0000
:102260005973746570732F6D6D0059737465707355
:102270002F6D6D005873746570732F6D6D005873FA
:10228000746570732F6D6D00412D74726176656C8D
:1022900000412D74726176656C00412D7265747217
:1022A00061637400412D7265747261637400416DE5
:1022B0006178204500416D6178204500416D61786D
:1022C000205A00416D6178205A00416D6178205993
:1022D00000416D6178205900416D617820580041BE
:1022E0006D61782058005654726176206D696E00D9
:1022F0005654726176206D696E00566D696E005697
:102300006D696E00566D6178204500566D617820CC
:102310004500566D6178205A00566D6178205A004C
:10232000566D6178205900566D6178205900566DC0
:102330006178205800566D617820580056652D6AE6
:1023400065726B0056652D6A65726B00567A2D6A50
:1023500065726B00567A2D6A65726B005678792D1E
:102360006A65726B005678792D6A65726B004163FD
:1023700063656C00416363656C004D6F7665206139
:1023800078697300436F6E74726F6C0020746F6FA6
:10239000206C6F6E6720657874727573696F6E203C
:1023A00070726576656E7465640020636F6C64207E
:1023B000657874727573696F6E2070726576656E7C
:1023C00074656400526573656E643A20006F6B003B
:1023D0003E20636C616D705F746F5F736F667477BE
:1023E0006172655F656E6473746F7073203E204127
:1023F000646420686F6D655F6F66667365745B5AB1
:102400005F415849535D3A004B494C4C45442E209E
:10241000004B494C4C45442E2000627573793A209C
:1024200070617573656420666F7220696E70757473
:1024300000627573793A2070617573656420666F08
:1024400072207573657200627573793A2070726FCD
:1024500063657373696E67005072696E746572208C
:1024600068616C7465642E206B696C6C282920632C
:10247000616C6C6564210043616E6E6F7420656EE3
:10248000746572207375626469723A2000052E2E9D
:10249000004261636B004B64200023646566696ED3
:1024A00065202044454641554C545F004B6920004F
:1024B00023646566696E65202044454641554C5449
:1024C0005F004B70200023646566696E65202044C0
:1024D000454641554C545F00504944204175746F46
:1024E00074756E652066696E697368656421205035
:1024F000757420746865206C617374204B702C2097
:102500004B6920616E64204B6420636F6E7374614D
:102510006E74732066726F6D2062656C6F772069D0
:102520006E746F20436F6E66696775726174696F50
:102530006E2E6800504944204175746F74756E6545
:10254000206661696C6564212074696D656F7574BE
:1025500000504944204175746F74756E6520666142
:10256000696C6564212054656D7065726174757263
:102570006520746F6F206869676800204B643A209B
:1025800000204B693A2000204B703A200020436C19
:1025900061737369632050494420002054753A20C8
:1025A00000204B753A2000206D61783A2000206DA4
:1025B000696E3A200020643A200020626961733A13
:1025C00020005A506F7320005A506F7320004368E8
:1025D000616E676520666D2E206174205A506F739E
:1025E000004D363032004D363033005072696E7413
:1025F00065722068616C7465642E206B696C6C2850
:10260000292063616C6C65642100526573657420D8
:10261000616C6C0053746F70207072696E7400523C
:102620006573756D65207072696E74004D6F7665A7
:102630002061786973005061757365207072696EEE
:102640007400436F6E74726F6C00507265706172CB
:1026500065004368616E676520666D2E2061742099
:102660005A506F73004D363030004368616E6765B5
:102670002066696C616D656E740054756E650050FE
:1026800072696E742066726F6D205344004D6F6ED8
:1026900069746F72004E414E494E495459494E4635
:1026A000CDCCCC3D0AD7233C17B7D13877CC2B32D1
:1026B0009595E6241FB14F0A000020410000C84252
:1026C00000401C4620BCBE4CCA1B0E5AAEC59D74B1
:1026D000E0D97BE411241FBECFEFD1E2DEBFCDBF36
:1026E00000E00CBF16E0A0E0B2E0E2EAFEEE01E09E
:1026F0000BBF02C007900D92A636B107D9F726E1AD
:10270000A6E6B6E001C01D92A63BB207E1F713E1D1
:10271000C9E6D3E100E006C021970109802FFE0140
:102720000E94CDEBC836D10780E00807A9F70E94C8
:1027300016D50C943FF70C9400002F923F924F92C5
:102740005F926F927F928F929F92AF92BF92CF9241
:10275000DF92EF92FF920F931F93CF93DF93CDB74A
:10276000DEB7CB57D1090FB6F894DEBF0FBECDBF91
:102770002091FA093091FB0940E6429FC001439F36
:10278000900D11248658974F9093A8068093A70622
:102790008091E41580FF22C0E6E8F3E1849188236C
:1027A00041F09091C00095FFFCCF8093C600319618
:1027B000F5CFE091A706F091A8068191882339F022
:1027C0009091C00095FFFCCF8093C600F6CF80911A
:1027D000C00085FFFCCF8AE08093C6002091A70649
:1027E0003091A806F90180812F5F3F4F8032D1F3ED
:1027F000F093A806E093A7068E3469F01091A7061F
:102800000091A8066AE270E0812F902F0E946FEF7E
:102810000097D1F420C0818190ED980F9A3010F08C
:102820008D3261F73296DF0131962C9120532A3098
:10283000D0F3CD01FC01019620812032D9F3F09331
:10284000A806E093A706DACFFC0131968291803288
:1028500031F08A3221F0A12FB02F9D9102C0108259
:10286000F5CFFD01808111968032D9F380538A30F3
:1028700020F0E6E8F3E10C94992D00E010E02AE066
:10288000209FB001219F700D11248B01005311096D
:102890008191080F111D87FD1A95808180538A3020
:1028A00078F35F013196D5018C918032D1F3B092EB
:1028B0009506A092940621E030E03093071620930D
:1028C00006169D3409F465C7943511F40C94792CDF
:1028D000973411F00C94EA2C0C31110509F4E6C47C
:1028E00090F40430110530F4809163020230110538
:1028F000D8F12BC10430110511F00C94FE2C0E946C
:1029000006500C94FE2C0A35110509F4C3C610F5C7
:102910000D31110509F447C60E31110511F00C9463
:10292000FE2C0E94C14C0E9468460E94ECCD0E9481
:10293000665180E090E0A6E9B4E4809301029093B0
:102940000202A0930302B09304020E948750E5E5BF
:10295000F2E034C60B35110509F4A0C60C3511059B
:1029600009F4A1C60C94FE2C882311F40C94FE2CBF
:102970000E94C1478FE796E00E94E7C60E94FC4F85
:102980008091E41583FD96C0C0908B06D0908C0694
:10299000E0908D06F0908E0620912D0830912E0843
:1029A00040912F0850913008C701B6010E94D5EB25
:1029B0004B015C0120E030E0A9010E94BBF38823B9
:1029C00009F478C020917D0230917E0240917F020F
:1029D00050918002609175157091761580917715F0
:1029E000909178150E94BBF387FF29C0C0922D08F3
:1029F000D0922E08E0922F08F0923008E6E8F3E13A
:102A00008491882341F09091C00095FFFCCF809382
:102A1000C6003196F5CFEFEDF1E08491882341F0C7
:102A20009091C00095FFFCCF8093C6003196F5CF02
:102A30008091C00085FFFCCF8AE08093C600C5016D
:102A4000B4010E941AED97FF07C09095809570958C
:102A500061957F4F8F4F9F4F6D3F7340810591056B
:102A60004CF1C0922D08D0922E08E0922F08F092DF
:102A70003008E6E8F3E18491882341F09091C000AA
:102A800095FFFCCF8093C6003196F5CFE1ECF1E0E5
:102A90008491882341F09091C00095FFFCCF8093F2
:102AA000C6003196F5CF8091C00085FFFCCF8AE04B
:102AB0008093C60020917F06309180064091810668
:102AC000509182066091210870912208809123081C
:102AD000909124080E94BBF3811117C020918306B6
:102AE00030918406409185065091860660912508B4
:102AF0007091260880912708909128080E94BBF3C6
:102B0000811103C00E9418471CC060916802709137
:102B10006902072E000C880B990B0E94C1F32091CB
:102B200001023091020240910302509104020E947E
:102B3000D9EF20E030E048EC52E40E94B2EC0E9471
:102B4000E5460E94A5460C94FE2C882311F40C94B3
:102B5000FE2C0E94C14789E40E946D47882329F01A
:102B60000E9498476B017C0103C0C12CD12C7601D7
:102B70008AE40E946D47882349F00E949847609636
:102B80006CAF7DAF8EAF9FAF609706C060961CAEF6
:102B90001DAE1EAE1FAE609760962CAD3DAD4EAD26
:102BA0005FAD6097C701B6010E9409EEE4966CAF75
:102BB0007DAF8EAF9FAFE49780912108909122085E
:102BC000A0912308B09124082C968CAF9DAFAEAF96
:102BD000BFAF2C97A7019601BC01CD010E94D6EB97
:102BE000AC966CAF7DAF8EAF9FAFAC978091250850
:102BF00090912608A0912708B091280864968CAF80
:102C00009DAFAEAFBFAF649760962CAD3DAD4EADFE
:102C10005FAD6097BC01CD010E94D6EBE0966CAF32
:102C20007DAF8EAF9FAFE0978091290890912A08E1
:102C3000A0912B08B0912C0868968CAF9DAFAEAFD9
:102C4000BFAF68979C01AD016091870670918806BF
:102C50008091890690918A060E94D5EB6C966CAFA4
:102C60007DAF8EAF9FAF6C9780918B0690918C0655
:102C7000A0918D06B0918E06E8968CAF9DAFAEAF59
:102C8000BFAFE89780912D0890912E08A0912F0852
:102C9000B0913008A0968CAF9DAFAEAFBFAFA097FC
:102CA000D701C601B05824968CAF9DAFAEAFBFAF71
:102CB000249760968CAD9DADAEADBFAD6097B0581A
:102CC00028968CAF9DAFAEAFBFAF289780917F069F
:102CD00090918006A0918106B0918206A4968CAF57
:102CE0009DAFAEAFBFAFA497AC962CAD3DAD4EAD92
:102CF0005FADAC97BC01CD010E94D5EB6B017C01AF
:102D00008091830690918406A0918506B0918606F5
:102D1000A8968CAF9DAFAEAFBFAFA897E0962CAD95
:102D20003DAD4EAD5FADE097BC01CD010E94D5EB4E
:102D30004B015C01A701960124966CAD7DAD8EAD73
:102D40009FAD24970E94D9EF2B013C01A50194016E
:102D500028966CAD7DAD8EAD9FAD28970E94D9EFC2
:102D60009B01AC01C301B2010E94D6EB2B013C01D7
:102D7000A501940124966CAD7DAD8EAD9FAD2497D9
:102D80000E94D9EF4B015C01A701960128966CAD1A
:102D90007DAD8EAD9FAD28970E94D9EF9B01AC0110
:102DA000C501B4010E94D5EBA30192010E9449EC38
:102DB0006B017C0120E030E0A9010E94BBF387FF9A
:102DC0000AC02BED3FE049EC50E4C701B6010E9478
:102DD000D6EB6B017C010230110551F42BED3FE085
:102DE00049EC50E4C701B6010E94D5EB6B017C01B0
:102DF00020E030E0A901C701B6010E94BBF38111B8
:102E00002AC0A4962CAD3DAD4EAD5FADA4972C96D7
:102E10006CAD7DAD8EAD9FAD2C970E94BBF3811143
:102E20001AC0A8962CAD3DAD4EAD5FADA897649687
:102E30006CAD7DAD8EAD9FAD64970E94BBF38111EB
:102E40000AC02BED3FE049EC50E4C701B6010E94F7
:102E5000D6EB6B017C01E4962CAD3DAD4EAD5FAD84
:102E6000E497C701B6010E94D9EF6C962CAD3DAD39
:102E70004EAD5FAD6C975F770E9409EE4B015C0130
:102E80002FE632E143E85AE30E94BBF387FD0AC212
:102E90002DEC3CEC4CE45FE3C501B4010E94B2ECC4
:102EA0000E944BED0E941FED1B01672B19F4222499
:102EB0002394312CB10180E090E00E94BFF34B01DC
:102EC0005C019B01AC01C701B6010E94B2EC2C96DB
:102ED0006CAF7DAF8EAF9FAF2C97A50194016C9620
:102EE0006CAD7DAD8EAD9FAD6C970E94B2ECA4969B
:102EF0006CAF7DAF8EAF9FAFA497A0962CAD3DADCC
:102F00004EAD5FADA097E8966CAD7DAD8EAD9FAD3B
:102F1000E8970E94D5EBA50194010E94B2ECA89617
:102F20006CAF7DAF8EAF9FAFA89720E030E040E060
:102F30005FE32C966CAD7DAD8EAD9FAD2C970E945E
:102F4000D9EF2C962CAD3DAD4EAD5FAD2C970E94C8
:102F5000D9EF9B01AC0160E070E080E89FE30E9444
:102F6000D5EB6C966CAF7DAF8EAF9FAF6C976896CC
:102F70008CAD9DADAEADBFAD689789879A87AB87A5
:102F8000BC87A0968CAD9DADAEADBFADA0978D8733
:102F90009E87AF87B88B6091680270916902072E97
:102FA000000C880B990B0E94C1F320910102309113
:102FB000020240910302509104020E94D9EF20E0E6
:102FC00030E040E752E40E94B2EC20E030E048EC10
:102FD00052E40E94B2ECA0966CAF7DAF8EAF9FAF73
:102FE000A09721964FAC219722965FAC229723960B
:102FF0006FAC239724967FAC249761961FAE6197A0
:10300000A1E0B0E06696BFAFAEAF669766962EAD14
:103010003FAD66972215330509F41CC16196BFAD1B
:103020006197BF5F6196BFAF6197B4310CF04BC041
:103030006C962CAD3DAD4EAD5FAD6C9728966CADEA
:103040007DAD8EAD9FAD28970E94D9EF6B017C01BD
:103050002C962CAD3DAD4EAD5FAD2C97B201C301AA
:103060000E94D9EFA70196010E94D6EB7B018C014B
:103070006C962CAD3DAD4EAD5FAD6C97B201C3010A
:103080000E94D9EF4B015C012C962CAD3DAD4EADAD
:103090005FAD2C9728966CAD7DAD8EAD9FAD28971A
:1030A0000E94D9EF9B01AC01C501B4010E94D5EB90
:1030B0002B013C01A701B80128964CAF5DAF6EAF64
:1030C0007FAF289760C06696EEADFFAD6697BF01F3
:1030D00080E090E00E94BFF32C962CAD3DAD4EAD4C
:1030E0005FAD2C970E94D9EF4B015C010E94AFECC1
:1030F0006B017C01C501B4010E94CEEE4B015C0165
:10310000A701960124966CAD7DAD8EAD9FAD249741
:103110000E94D9EF2B013C01A501940160966CAD92
:103120007DAD8EAD9FAD60970E94D9EF9B01AC0144
:10313000C301B2010E94D6EB2B013C01A501940111
:1031400024966CAD7DAD8EAD9FAD24970E94D9EFD6
:103150004B015C01A701960160966CAD7DAD8EAD13
:103160009FAD60970E94D9EF9B01AC01C501B401EE
:103170000E94D5EB28966CAF7DAF8EAF9FAF28979E
:1031800061961FAE61979201A301AC966CAD7DADC7
:103190008EAD9FADAC970E94D6EB69837A838B830B
:1031A0009C8328962CAD3DAD4EAD5FAD2897E09643
:1031B0006CAD7DAD8EAD9FADE0970E94D6EB6D837B
:1031C0007E838F839887A4962CAD3DAD4EAD5FADC9
:1031D000A49769857A858B859C850E94D6EB698743
:1031E0007A878B879C87A8962CAD3DAD4EAD5FADA1
:1031F000A8976D857E858F8598890E94D6EB6D870F
:103200007E878F87988BCE0101960E94E7C6E9845E
:10321000FA840B851C852D813E814F8158856981FB
:103220007A818B819C811F92A0968CAC9DACAEACB8
:10323000BFACA097DE011D966D010E94B6B36696E5
:10324000EEADFFAD669731966696FFAFEEAF66972F
:103250000F90DCCEE0908706F090880600918906FA
:1032600010918A062091830630918406409185064C
:103270005091860660917F0670918006809181064C
:10328000909182061F92A0968CAC9DACAEACBFAC68
:10329000A097BBE8CB2EB6E0DB2E0E94B6B30E940F
:1032A000A5460F900E94FC4F0C94FE2C0E94ECCD82
:1032B00084E2E1E1F2E0DE01119601900D928A953F
:1032C000E1F70E94F7D10E9466510E949B4610923E
:1032D000010210920202109203021092040288E589
:1032E0000E946D47F82E89E50E946D47082F8AE5F8
:1032F0000E946D47182FF11005C0011105C091E023
:10330000982705C0011102C090E001C0982F90934A
:103310000002911102C0112381F180E090E00E942F
:103320007E4D82E090E00E947E4D809168069091F3
:103330006906A0916A06B0916B0680930102909392
:103340000202A0930302B09304028091660690915A
:10335000670690936902809368020E94FC4F109266
:1033600079080E9466510E949B46109201021092B9
:103370000202109203021092040280910002811155
:1033800002C0FF2021F080E090E00E947E4D8091FD
:103390000002811102C0002321F081E090E00E9430
:1033A0007E4D80910002882309F447C00E94AF46F9
:1033B00080E090E0A2EDB2E480937F0690938006D7
:1033C000A0938106B093820680938306909384062F
:1033D000A0938506B093860680E090ECAAEDB5E454
:1033E0008093010290930202A0930302B09304021F
:1033F0000E9418470E94ECCD80917F069091800634
:10340000A0918106B09182068093210890932208B2
:10341000A0932308B093240880918306909184069A
:10342000A0918506B0918606809325089093260882
:10343000A0932708B093280843C0112309F46EC055
:1034400080917215882309F467C0809173158823D1
:1034500009F462C08090210890902208A09023086F
:10346000B0902408C0902508D0902608E090270846
:10347000F090280820E030E0A901C501B4010E94C5
:10348000FCED87FD22C020E030E042E553E4C501B9
:10349000B4010E94BBF31816C4F020E030E0A9018B
:1034A000C701B6010E94FCED87FD0FC020E030E0AF
:1034B00042E553E4C701B6010E94BBF318162CF095
:1034C00082E090E00E947E4D29C060E08AE392E0B5
:1034D0000E94675BE6E8F3E18491882341F09091D4
:1034E000C00095FFFCCF8093C6003196F5CFE9E28E
:1034F000F2E08491882341F09091C00095FFFCCFC9
:103500008093C6003196F5CF8091C00085FFFCCF37
:103510008AE08093C60002C00E9441460E94AF46E6
:1035200010924F028091E41585FF14C0E9EFF1E09D
:103530008491882341F09091C00095FFFCCF809347
:10354000C6003196F5CF8091C00085FFFCCF8AE0A0
:103550008093C6008091680690916906A0916A06E2
:10356000B0916B068093010290930202A093030234
:10357000B093040280916606909167069093690269
:10358000809368020E94FC4F1092790884E2FE0149
:103590003196A1E1B2E001900D928A95E1F70E9487
:1035A000E6A60C94FE2C0E94FE2D0C94FE2C90910D
:1035B000C00095FFFCCF8093C600319684918111A5
:1035C000F6CF20E030E0A901609121087091220837
:1035D00080912308909124080E94D6EB27E137EBD5
:1035E00041ED58E30E94D6EB42E00E946973E0E5AA
:1035F000F2E08491882341F09091C00095FFFCCFC8
:103600008093C6003196F5CF20E030E0A9016091AB
:1036100025087091260880912708909128080E941B
:10362000D6EB27E137EB41ED58E30E94D6EB42E0C1
:103630000E946973EBE4F2E08491882341F0909159
:10364000C00095FFFCCF8093C6003196F5CF27E1EF
:1036500037EB41ED58E36091290870912A08809179
:103660002B0890912C080E94D6EB42E00E946973CF
:103670008091C00085FFFCCF8AE08093C6000E9445
:1036800052500E94C14C80E00E941D4D0E94E6A64F
:103690000C94FE2C109293060C94FE2C81E08093E7
:1036A00093060C94FE2C85E40E946D47B82E811180
:1036B00002C00E94ECCDE7E98E2EE2E09E2EF1E200
:1036C000CF2EF8E0DF2EACE6EA2EA6E0FA2EA12CF3
:1036D00000E010E0D4018D914D010E946D478823D8
:1036E000F1F1F6012081318142815381E9962FAFBA
:1036F000E997EA963FAFEA97EB964FAFEB97EC96D8
:103700005FAFEC970E949847D6016D937D938D93A0
:103710009C931397E9962FADE997EA963FADEA9708
:10372000EB964FADEB97EC965FADEC970330110540
:10373000B1F00E94D5EB9B01AC01F7016081718172
:10374000828193810E94D6EBD7016D937D938D93F7
:103750009C931397C8010E942747AA24A3940F5F44
:103760001F4FB4E0CB0ED11CE4E0EE0EF11C043090
:10377000110509F0AFCFAA2021F00E94AF460C94AA
:10378000FE2CBB2011F40C94FE2C0E9422D20C942F
:10379000FE2C0337110509F40AC708F0CFC00C341A
:1037A000110509F4B6C508F072C00831110509F415
:1037B00032C308F03EC00231110509F4D9C6D8F46D
:1037C0000230110508F46FC20131110511F00C949B
:1037D000FE2C60E082E892E00E94675B5F988A9826
:1037E0009FB7F894809108018E7F809308019FBF56
:1037F00012980C94FE2C0531110509F402C348F40B
:103800000431110511F00C94FE2C0E9415E40C9467
:10381000FE2C0631110509F4F8C20731110511F02B
:103820000C94FE2C40E061E0C5010E94CC6A0C942F
:10383000FE2C0E31110509F45EC3B0F40A311105F6
:1038400009F4FEC208F4F2C20B31110509F406C3F3
:103850000C31110511F00C94FE2C40E060E0C50124
:103860000E94CC6A0C94FE2C0032110509F47EC42F
:1038700008F4CCC40A32110509F409C50B3411054A
:1038800011F00C94FE2C0E94C4DA0C94FE2C083625
:10389000110509F458C538F50235110509F45FC65C
:1038A00078F40035110509F452C608F054C60D34F9
:1038B000110511F00C94FE2C0E941B750C94FE2C2B
:1038C0000435110509F454C608F44DC60535110533
:1038D00009F452C60C35110511F00C94FE2C0E940F
:1038E000E1DE0C94FE2C0E36110509F48FC598F418
:1038F0000A36110509F423C608F415C60B3611055E
:1039000009F421C60D36110511F00C94FE2C0E940D
:103910007BE20C94FE2C0037110509F4FCC508F479
:1039200088C50137110509F4FAC50237110511F0F0
:103930000C94FE2C0E94E6A60C94FE2C0D32F1E0B5
:103940001F0711F40C94F02608F082C0093C110501
:1039500009F496C770F50937110509F433C688F4E0
:103960000737110509F49CC108F025C60537110574
:1039700011F00C94FE2C60E0C5010E94815B0C9458
:10398000FE2C0139110509F4A6C648F40C381105BE
:1039900011F00C94FE2C0E944AE00C94FE2C0E3B7D
:1039A000110509F4C8C5083C110509F457C70C9462
:1039B000FE2C0C3D110511F40C94892568F50C3C86
:1039C000110509F495C778F40B3C110511F00C941E
:1039D000FE2C24ECE22E25E1F22E07E912E034E081
:1039E000D32ED00E76C70D3C110509F4FDC70E3C51
:1039F000110511F00C94FE2C07E9A02E02E0B02E68
:103A000081E2C82E88E0D82E9DECE92E97E0F92EB1
:103A100000E010E00C945F25023E110511F40C94B7
:103A2000B42538F40D3D110511F40C9498250C942F
:103A3000FE2C083131E0130711F40C940A260C32E5
:103A4000114011F00C94FE2C0E94B4DE0C94FE2C5C
:103A5000043F91E0190711F40C94482808F045C080
:103A60000039B1E01B0711F40C94502790F40F3289
:103A7000F1E01F0711F40C94072710F40C94F326BF
:103A80000033114011F00C94FE2C0E9447DD0C9481
:103A9000FE2C023981E0180711F40C94582710F419
:103AA0000C9453270A39A1E01A0711F40C945E27ED
:103AB0000C3A114011F00C94FE2C82E795E12E9601
:103AC0009FAF8EAF2E97ADECB7E02696BFAFAEAFEF
:103AD0002697E1E2F8E02296FFAFEEAF229700E0F2
:103AE00010E0212C312C0C9461270A35E2E01E07EE
:103AF00011F40C94A02BB0F4063F21E0120711F44E
:103B00000C944E2810F40C944B28073F81E01807C2
:103B100011F40C9451280835124011F40C94EB2840
:103B20000C94FE2C0335A3E01A0711F40C946528BD
:103B300008F0A3C00B35124011F00C94FE2C0E942B
:103B4000ECCD8091960690919706A0919806B09141
:103B5000990680937F0690938006A0938106B09388
:103B6000820680919A0690919B06A0919C06B09146
:103B70009D068093830690938406A0938506B09358
:103B8000860660E070E48CE995E40E94E5460E94B8
:103B9000ECCD80919E0690919F06A091A006B091D9
:103BA000A1068093870690938806A0938906B09318
:103BB0008A0660E070E48CE995E40E94E5460E9484
:103BC000ECCD8091A2069091A306A091A406B0919D
:103BD000A50680938B0690938C06A0938D06B093D8
:103BE0008E0660E070E48CE995E40E94E5460E9450
:103BF000ECCD80917F0690918006A0918106B091D6
:103C000082068093210890932208A0932308B09302
:103C100024088091830690918406A0918506B09136
:103C200086068093250890932608A0932708B093D2
:103C300028088091870690918806A0918906B09106
:103C40008A068093290890932A08A0932B08B093A2
:103C50002C0880918B0690918C06A0918D06B091D6
:103C60008E0680932D0890932E08A0932F08B09372
:103C700030080E94ECCD0C94FE2C003AF3E01F07B4
:103C800009F4BAC2073E134011F00C94FE2C81E0F7
:103C9000809363021092A3070E94F6C70C94FE2C37
:103CA000E9ECF3E09BC46CE070E08DE792E00E94E9
:103CB0000B4D80E50E946D47882371F00E9480477C
:103CC0006C01990FEE08FF0811E0C114D104E10462
:103CD000F10431F410E004C010E0C12CD12C7601C5
:103CE00083E50E946D478823D9F00E94984720E021
:103CF00030E04AE754E40E94D9EF0E941FED6B01C7
:103D00007C0111110FC0672B682B692B59F4D50169
:103D10008C91882339F061E0C5010E94815B07C066
:103D20001123A9F360E08CE692E00E94675B81E0DA
:103D300080938A15109289150E94ECCD0E94FC4F49
:103D4000C114D104E104F10441F18091FE15909178
:103D5000FF15A0910016B0910116C80ED91EEA1EDB
:103D6000FB1E83E090E090930716809306160E9456
:103D70000B53DC01CB018C199D09AE09BF09B7FDBE
:103D800002C00C94C42D8091A40782FF02C00C9441
:103D9000C42D80E00E943CC2EACF83E090E0909383
:103DA0000716809306168091A40782FD04C080E068
:103DB0000E943CC2F8CF81E090E090930716809378
:103DC000061680915F0D882339F060E08DE592E062
:103DD0000E94675B0C94FE2C8FE398E09F938F9377
:103DE00082EE93E09F938F930E94A7EF60E0CE0155
:103DF00001960E94815B0F900F900F900F900C9492
:103E0000FE2C0E9430750C94FE2C10925F0D1092C7
:103E1000600D0C94FE2C8091600D882319F081E0D8
:103E200080935F0D0E94C4DA0C94FE2C80915F0D8C
:103E3000882311F40C94FE2C10925F0D0C94FE2C30
:103E40008091600D882311F40C94FE2C83E50E9470
:103E50006D4781110C94EC2C0C94FE2C8091600D1C
:103E6000811103C0EDE9F2E03AC0EBE8F2E08491A1
:103E7000882341F09091C00095FFFCCF8093C6004D
:103E80003196F5CF6091DB0F7091DC0F8091DD0FE3
:103E90009091DE0F4AE00E94CE728091C00085FFB3
:103EA000FCCF8FE28093C6006091D70F7091D80F3E
:103EB0008091D90F9091DA0F4AE00E94CE728091E2
:103EC000C00085FFFCCF8AE08093C6000C94FE2CD6
:103ED0009091C00095FFFCCF8093C60031968491ED
:103EE0008111F6CF8091C00085FFFCCF8AE08093DE
:103EF000C6000C94FE2C8091600D882311F40C9464
:103F0000FE2C8AE29FE00E94ED948AE29FE00E94EC
:103F1000D3A010925E0D10925D0DE0909406F0908B
:103F200095068091600D882311F40C94FE2C8AE292
:103F30009FE00E94D3A010925F0D1D8218861C8204
:103F40001B8285E393E09A8389838CE89DE09093BC
:103F5000AC0D8093AB0DF70180818F3209F083C0E7
:103F60006FE270E0C7010E946FEF8C010F5F1F4F7F
:103F70007AE0772E9E012F5F3F4F49010115110511
:103F800009F477C06FE270E0C8010E946FEF6C0126
:103F9000009709F46FC00817190708F06BC05C019F
:103FA000A01AB10AA501B801CE0185960E9498EF2A
:103FB000E5E2F0E0EC0FFD1FEA0DFB1D10828E0123
:103FC0000B5D1F4FF8018191882339F09091C0005B
:103FD00095FFFCCF8093C600F6CF8091C00085FF8F
:103FE000FCCF7092C6006091AB0D7091AC0D611565
:103FF000710511F06C5F7F4F21E0AE014B5D5F4FAB
:10400000CE0105960E9417A5811125C0E3EDF2E0CF
:104010008491882371F09091C00095FFFCCF80932C
:10402000C6003196F5CF9091C00095FFFCCF8093EC
:10403000C600D8018D918D018111F5CF8091C0000E
:1040400085FFFCCF8EE28093C600CE0101960E94D0
:10405000A0C10C94FE2C9092AC0D8092AB0D860109
:104060000F5F1F4F8BCF8DEA9DE09093AC0D809337
:10407000AB0D87016091AB0D7091AC0D61157105B1
:1040800011F06C5F7F4F1DA218A622E0A801CE019F
:1040900085960E9417A5811102C0F12C14C0CE0193
:1040A00085960E9451748823C1F361E0CE01859604
:1040B0000E94DCA0009789F325EEFC01208318A65E
:1040C0000E94FD92F82ECE0185960E94F64FF110C7
:1040D00003C0EBEBF2E02FC0EDEAF2E0849188231D
:1040E00041F09091C00095FFFCCF8093C6003196BF
:1040F000F5CFF8018191882339F09091C00095FFA8
:10410000FCCF8093C600F6CF8091C00085FFFCCF26
:104110008AE08093C6001092DB0F1092DC0F1092A1
:10412000DD0F1092DE0F1CC09091C00095FFFCCFF8
:104130008093C600319684918111F6CFF801819168
:10414000882339F09091C00095FFFCCF8093C60082
:10415000F6CF8091C00085FFFCCF8EE28093C60031
:10416000CE0101960E94A0C10C94FE2C80915F0D9F
:1041700081110E94ECCD009194061091950661E2A8
:1041800070E0C8010E946FEF009719F08C010F5F7B
:104190001F4F80E50E946D47882349F0FF24F39468
:1041A00080917806909179068017910708F0F12C9C
:1041B0008091600D882311F40C94FE2C4F2D61E04A
:1041C000C8010E94CC6A83E50E946D47882349F0AC
:1041D00080917806909179068017910710F40C94DD
:1041E000D02D8091600D882319F081E080935F0DC0
:1041F000F1100C94FE2C16CE81E080935E0D40E011
:1042000060E0C5010E94CC6A0C94FE2C0E94E3740D
:104210002CE330E040E050E00E94E2F67F936F93A1
:104220003F932F9387EE92E09F938F938E010F5FC2
:104230001F4F1F930F930E948CF30FB6F894DEBFAD
:104240000FBECDBFE6E8F3E18491882341F0909161
:10425000C00095FFFCCF8093C6003196F5CFF801E2
:104260008191882339F09091C00095FFFCCF809315
:10427000C600F6CF8091C00085FFFCCF8AE0809316
:10428000C60060E0C8010E94815B0C94FE2C83E5AF
:104290000E946D47882311F40C94FE2C0E948047E5
:1042A0007C018F3F910519F010F00C94FE2C80E5F5
:1042B0000E946D47882339F00E9480478C0197FF48
:1042C00004C00C94FE2C0DE010E0EBE9F2E08191CB
:1042D00091910817190711F40C94FE2C82E0E13D2E
:1042E000F807A9F761E0802F0E941A716E2D802FC8
:1042F0000E94EB70B701802F0E940A52093011050D
:1043000011F00C94FE2CF092F314E092F2140C9441
:10431000FE2C8091510D9091520D019711F00C944B
:10432000FE2C82E090E09093520D8093510D0E94FC
:104330000B536093590D70935A0D80935B0D9093BE
:104340005C0D0C94FE2C88E690E00E941AD481113A
:104350000C94FE2C8091E41583FF02C00C94FE2C7B
:1043600083E50E946D47882311F40C94FE2C0E9473
:1043700098476B017C010091081610E0000F111F97
:1043800007501B4EC701B6010E941AEDD8016D936C
:104390007C9320E030E040EA52E4C701B6010E947D
:1043A000BBF31816B4F00E941B758FE398E09F933F
:1043B0008F9382EE93E09F938F930E94A7EF60E02C
:1043C000CE0101960E94815B0F900F900F900F908D
:1043D00002C00E94C4DAE0910816B4E0EB9FF0013D
:1043E0001124EB58FA4E2081318142815381C7015B
:1043F000B6010E94FCED181614F00C94FE2C60E03F
:1044000086EF92E00E94675B0C94FE2C8EE40E9483
:104410006D47882311F40C94FE2C0E948D47609305
:104420007A0670937B0680937C0690937D060C94AD
:10443000FE2C83E50E946D47882319F00E94804777
:1044400001C080E08093E415E6E8F3E184918823DD
:1044500041F09091C00095FFFCCF8093C60031964B
:10446000F5CFE1E1F3E08491882341F09091C00021
:1044700095FFFCCF8093C6003196F5CF8091E4156F
:10448000882399F141E053E020E030E060E07CE2F5
:104490008091E41590E0022E02C0959587950A94CC
:1044A000E2F780FF1AC0A1E0A60F662331F08091E9
:1044B000C00085FFFCCF7093C600FA0185919491EE
:1044C000FC016491662341F0E091C000E5FFFCCF60
:1044D0006093C6000196F4CF6A2F2F5F3F4F4E5F67
:1044E0005F4F26303105A1F60DC0EDE0F3E0849179
:1044F000882341F09091C00095FFFCCF8093C600C7
:104500003196F5CF8091C00085FFFCCF8AE0809383
:10451000C6000C94FE2C88E193E00E9400C20E9429
:104520005CE00C94FE2C0E94F9E3109207161092A6
:1045300006160C94E42D0E9455E10C94FE2C0E946A
:1045400096E00C94FE2C0E9487E00C94FE2C0E94B6
:104550001DE00C94FE2C0E94D4DF0C94FE2C1092D3
:1045600092060C94FE2C81E0809392060C94FE2C13
:104570000E947BDF0C94FE2C83E50E946D4788230C
:1045800011F40C94FE2C0E94984720E030E04AE79A
:1045900054E40E94D9EF0E941FED609302167093BD
:1045A000031680930416909305160C94FE2C0E941B
:1045B00063A60C94FE2C81E080934F0280937E06CC
:1045C0000C94FE2C10924F0210927E060C94FE2C3E
:1045D0009091C00095FFFCCF8093C600819181111E
:1045E000F7CF8091C00085FFFCCF8AE08093C600A2
:1045F000E1E3F3E08491882341F09091C00095FFBE
:10460000FCCF8093C6003196F5CF659903C0EAEBE5
:10461000F3E009C0EFEBF3E006C09091C00095FF16
:10462000FCCF8093C60081918111F7CF8091C000AB
:1046300085FFFCCF8AE08093C600E9E2F3E0849135
:10464000882341F09091C00095FFFCCF8093C60075
:104650003196F5CF8091030181FD03C0EAEBF3E0D1
:1046600009C0EFEBF3E006C09091C00095FFFCCFCE
:104670008093C60081918111F7CF8091C00085FFA2
:10468000FCCF8AE08093C600E1E2F3E084918823C6
:1046900041F09091C00095FFFCCF8093C600319609
:1046A000F5CF4B9B03C0EAEBF3E009C0EFEBF3E07F
:1046B00006C09091C00095FFFCCF8093C600819109
:1046C0008111F7CF8091C00085FFFCCF8AE08093F5
:1046D000C6000C94FE2C83E50E946D47882351F19F
:1046E0000E948047823018F1E3E6F3E18491882349
:1046F00041F09091C00095FFFCCF8093C6003196A9
:10470000F5CFE9E3F3E08491882341F09091C00074
:1047100095FFFCCF8093C6003196F5CF8091C00005
:1047200085FFFCCF8AE08093C6000C94FE2C81307C
:1047300009F44AC088E40E946D47882391F00E94E2
:104740008047803A91053CF08D32F1E09F072CF0D4
:104750008CE291E002C080EA90E09093CC078093D5
:10476000CB0786E40E946D47882381F00E94804732
:104770008F3F910519F014F08FEF90E097FF02C082
:1047800080E090E09093C8078093C7078091F81469
:10479000882311F40C94FE2C82E40E946D47882338
:1047A00011F40C94FE2C0E9480478838910514F077
:1047B00087E890E097FF02C080E090E09093CA07FE
:1047C0008093C9070C94FE2C88E40E946D478823CF
:1047D00091F00E948047803A91053CF08D3221E0B3
:1047E00092072CF08CE291E002C080EA90E0909376
:1047F000C6078093C50786E40E946D47882381F031
:104800000E9480478F3F910519F014F08FEF90E0E0
:1048100097FF02C080E090E09093C2078093C107A9
:104820008091F814882311F40C94FE2C82E40E94E9
:104830006D47882311F40C94FE2C0E948047883821
:10484000910514F087E890E097FF02C080E090E0C7
:104850009093C4078093C3070C94FE2C88EC90E0DF
:104860000E941AD481110C94FE2C84E40E946D479E
:10487000882311F40C94FE2C0E949CE40C94FE2CD2
:104880004CEAE42E45E1F42E07E912E054E0D52E7F
:10489000D00ED8018D918D010E946D47882349F07B
:1048A0000E9498470E941FEDF70160837183828305
:1048B0009383F4E0EF0EF11CD012EBCF0E94F2765E
:1048C0000C94FE2CF4E0EF0EF11CD01611F40C94B5
:1048D000FE2CD8018D918D010E946D47882391F3A4
:1048E0000E949847F7016083718382839383EACFA4
:1048F00083E50E946D478823F9F00E949847AB0139
:10490000BC014093E0155093E1156093E21570935C
:10491000E3154093A4155093A5156093A6157093C5
:10492000A71584EB93E00E94BB4B8091C00085FFEC
:10493000FCCF8AE08093C60080E50E946D47882303
:10494000B9F00E949847AB01BC014093E015509329
:10495000E1156093E2157093E31587E993E00E94F7
:10496000BB4B8091C00085FFFCCF8AE08093C600DE
:1049700082E50E946D478823B9F00E949847AB01F9
:10498000BC014093A8155093A9156093AA15709384
:10499000AB1588E793E00E94BB4B8091C00085FF78
:1049A000FCCF8AE08093C60084E50E946D4788238F
:1049B00011F40C94FE2C0E949847AB01BC0140936B
:1049C000A4155093A5156093A6157093A7158AE5B5
:1049D00093E00E94BB4B8091C00085FFFCCF8AE032
:1049E0008093C6000C94FE2C83E50E946D478823BB
:1049F00051F00E9498476093C0157093C115809341
:104A0000C2159093C31584E50E946D47882351F029
:104A10000E9498476093BC157093BD158093BE1596
:104A20009093BF1582E40E946D47882361F00E9435
:104A300098470E941FED6093D9077093DA0780931F
:104A4000DB079093DC0788E50E946D47882351F0CF
:104A50000E9498476093DC157093DD158093DE15F6
:104A60009093DF158AE50E946D47882351F00E94DC
:104A700098476093D8157093D9158093DA15909361
:104A8000DB1585E40E946D47882309F4B7C70E94AF
:104A900098476093D4157093D5158093D61590934D
:104AA000D715ACC70F5F1F4FB4E0CB0ED11CE4E0AD
:104AB000EE0EF11C0330110511F40C94BD1BD50151
:104AC0008D915D010E946D47882361F30E94984794
:104AD0002B013C01F70120813181428153810E94E9
:104AE000D5EB9B01AC01D6016D917D918D919C918F
:104AF0000E94D6EBF6016083718382839383D70192
:104B00004D925D926D927C921397C8010E94274747
:104B1000C9CF83E50E946D47882309F46FC70E94BF
:104B200098470E941AED709369026093680266C705
:104B300083E50E946D47882309F460C70E94984767
:104B40000E941AED6B017C018DED90E00E941AD459
:104B5000811154C7E0910816F0E0EE0FFF1FE559F0
:104B6000FD4FD182C0824AC780E50E946D478823ED
:104B700009F444C70E9498470E941AEDD62EE62EEB
:104B8000F72E83E50E946D47882331F00E949847F5
:104B90000E941AED8B0102C00FEF1FEFC8010196B2
:104BA000039708F02BC7EBE9F2E0819191918E1504
:104BB0009F0509F423C722E0E13DF207B1F7F7FCB6
:104BC0001DC70E94ECCDFD2C60E08D2D0E941A7156
:104BD0000F3F3FEF130731F00130110571F401E091
:104BE00010E00DC08D2D0E94EDD431E020E0892B26
:104BF00009F030E0032F122F02C000E010E08F2DEB
:104C00000E94EDD48017910709F4F8C680E00E9455
:104C10003CC2F5CF80E50E946D47882321F00E94B9
:104C200080478C0102C00FEF1FEF83E50E946D47A4
:104C3000882309F43EC00E9480470115110531F414
:104C4000BC018EE49DE00E94417FD8C6E3E6F3E11B
:104C50008491882341F09091C00095FFFCCF809310
:104C6000C6003196F5CFEBEFF3E08191882339F060
:104C70009091C00095FFFCCF8093C600F6CFB8019D
:104C8000110F880B990B0E944373ECEEF3E08191B6
:104C9000882339F09091C00095FFFCCF8093C60027
:104CA000F6CF8091C00085FFFCCF8AE08093C600DC
:104CB000A5C617FDA3C6E6E8F3E18491882341F079
:104CC0009091C00095FFFCCF8093C6003196F5CF40
:104CD000EAEFF3E08191882339F09091C00095FFCD
:104CE000FCCF8093C600F6CFB801012E000C880BD4
:104CF000990B0E944373E7E0F6E08191882339F035
:104D00009091C00095FFFCCF8093C600F6CFF801CC
:104D1000EE0FFF1F0E0F1F1FF801E25BF24F8281A3
:104D200028E532E06901C81AD10887FDD394CC0C7C
:104D3000DD1CCC0CDD1C0D2C000CEE08FF08818165
:104D400028E830E04901881A910887FD9394880C7F
:104D5000991C880C991C092C000CAA08BB0880819E
:104D60008F3FC1F090E0FC01EE0FFF1F8E0F9F1FE1
:104D7000FC01EF51F34F2181328153E0220F331FA9
:104D80005A95E1F764E0369527956A95E1F72E5F2D
:104D90003F4F02C020E030E02F5F3F4FC901330F8B
:104DA000AA0BBB0B9C01AD01281939094A095B0903
:104DB000A4EBB0E00E9420F7A70196012819390959
:104DC0004A095B090E9404F7CA01B9010E944373B2
:104DD0008091C00085FFFCCF8AE08093C6000EC69C
:104DE0000E94E8DD0BC683E50E946D47882319F019
:104DF0000E94984703C060E070E0CB0160937D02A1
:104E000070937E0280937F0290938002F7C585E4C1
:104E10000E946D47882321F00E9480477C0102C0D8
:104E2000E12CF12C83E40E946D47882321F00E943D
:104E300080476C0103C035E0C32ED12C85E50E946C
:104E40006D47882329F00E94804701E0892B09F4EF
:104E500000E083E50E946D47882319F00E9498477F
:104E600006C0F7FC0AC060E070E086E193E4E1145C
:104E7000F10439F41092081604C060E070E08CE888
:104E800092E410920716109206169601A7010E944E
:104E9000E0E481E090E09093071680930616AEC59B
:104EA0000E94ECCDABC50E94C14C0E946846A6C5CD
:104EB0000E94C14C80E00E941D4DA0C50E94A6CD5D
:104EC0009DC52E96AEADBFAD2E978D912E96BFAFE0
:104ED000AEAF2E97882309F4AAC0F801E359FD4F1D
:104EE0002081318142815381F801EC56FA4E608174
:104EF0007181828193810E94D6EB20E030E040E016
:104F00005FE30E94D9EF9B01AC012296EEADFFADAD
:104F1000229760817181828193810E94FCED181635
:104F200044F4C801895E9B4F0E9421479B01AC015C
:104F300003C020E030E0A9012296AEADBFAD2297BC
:104F40008D909D90AD90BC90C501B4010E94D5EBB1
:104F50006B017C0120E030E040EA51EC0E94FCED66
:104F60001816CCF520E030E040EA51E4C701B60164
:104F70000E94BBF387FF2FC02696EEADFFAD2697AC
:104F80004080518062807380A7019601C301B20105
:104F90000E94D5EB6B017C01A30192010E94D5EB2D
:104FA0009B01AC01C501B4010E94D6EB2296AEADC7
:104FB000BFAD22976D937D938D939C931397269607
:104FC000EEADFFAD2697C082D182E282F382C101AD
:104FD0000E9427472CC0E3E6F3E18491882341F047
:104FE0009091C00095FFFCCF8093C6003196F5CF1D
:104FF000EAEFF3E08491882341F09091C00095FF9F
:10500000FCCF8093C6003196F5CF8091C00085FF1C
:10501000FCCF8AE08093C6008CEE93E00E947D5B1B
:1050200068EC70E080E090E00E94F792E7C4FFEF48
:105030002F1A3F0A26962EAD3FAD26972C5F3F4F85
:1050400026963FAF2EAF26970C5F1F4F22968EAD50
:105050009FAD2297049622969FAF8EAF229793E042
:105060002916310409F02DCF0E94AF4660E08CED87
:1050700093E00E94675B68EC70E080E090E00E9443
:10508000F79268EC70E080E090E00E94F792B6C47E
:105090000E94E490B3C40E94E165B0C40E940D6414
:1050A000ADC483E50E946D47182F882351F00E94FC
:1050B000984711E020E030E0A9010E94BBF3811184
:1050C00010E0812F0E94945F99C4E6E8F3E1849197
:1050D000882341F09091C00095FFFCCF8093C600DB
:1050E0003196F5CFE6E3F4E08491882341F0909186
:1050F000C00095FFFCCF8093C6003196F5CF80911C
:10510000C00085FFFCCF80E28093C6008AE50E9444
:105110006D47882309F44BC00E9498476B017C01BE
:1051200020E030E040E050EC0E94FCED87FD18C02C
:1051300020E030E040E050E4C701B6010E94BBF33C
:10514000181674F0C0925502D0925602E09257029F
:10515000F092580242E0C701B6010E94697333C061
:10516000EEE2F4E08491882341F09091C00095FF35
:10517000FCCF8093C6003196F5CF6EEF7FEF8FEFB7
:105180009FEF0E944373E6E2F4E08491882341F0AC
:105190009091C00095FFFCCF8093C6003196F5CF6B
:1051A00062E070E080E090E00E9443730CC04091A8
:1051B000550250915602609157027091580283E255
:1051C00094E00E94BB4B8091C00085FFFCCF8AE039
:1051D0008093C60013C420917D0230917E024091DD
:1051E0007F025091800260917515709176158091C3
:1051F0007715909178150E94BBF387FF22C0E3E6F4
:10520000F3E18491882341F09091C00095FFFCCF99
:105210008093C6003196F5CFE7E6F4E084918823C9
:1052200041F09091C00095FFFCCF8093C60031966D
:10523000F5CF8091C00085FFFCCF8AE08093C60047
:10524000DDC387E594E00E947D5BE1E2F8E08FE753
:1052500096E08E010F5F1F4F4191519161917191C5
:10526000DC014D935D936D937D93CD01D8014D93FA
:105270005D936D937D938D01B8E0E133FB0761F79A
:10528000CD84DE84EF84F88820E030E040EA50E40A
:10529000C701B6010E94D6EB60938B0670938C0613
:1052A00080938D0690938E0660E070E08AEF95E41F
:1052B0000E94E5460E94ECCD85E40E946D4788235C
:1052C00079F00E9498479B01AC0160918B06709128
:1052D0008C0680918D0690918E060E94D6EB08C0B8
:1052E00020E030E040EA50E4C701B6010E94D5EB6F
:1052F00060938B0670938C0680938D0690938E0638
:1053000060E070E08AEF95E40E94E5460E94ECCDF3
:1053100088E50E946D47882359F00E949847609362
:105320007F067093800680938106909382060CC05E
:1053300080E090E0A8E4B3E480937F069093800639
:10534000A0938106B093820689E50E946D47882369
:1053500059F00E9498476093830670938406809367
:1053600085069093860608C01092830610928406E4
:10537000109285061092860660E070E08AEF95E450
:105380000E94E5460E94ECCD8AE50E946D47882385
:1053900069F00E9498479B01AC016091870670916B
:1053A00088068091890690918A0608C020E030E046
:1053B00048EC51E469857A858B859C850E94D6EB03
:1053C00060938706709388068093890690938A0677
:1053D00060E070E08AEF95E40E94E5460E94ECCD23
:1053E00095991EC020E030E04CE052E460918B06BD
:1053F00070918C0680918D0690918E060E94D6EB5E
:1054000060938B0670938C0680938D0690938E0626
:1054100060E070E08AE795E40E94E5460E94ECCDEA
:105420008CE40E946D47882379F00E9498479B0185
:10543000AC0160918B0670918C0680918D069091E5
:105440008E060E94D6EB0EC020E030EC45E054E41E
:1054500060918B0670918C0680918D0690918E06DE
:105460000E94D5EB60938B0670938C0680938D061B
:1054700090938E0660E070E08AEF95E40E94E54626
:105480000E94ECCD0E94ECCD129A6CE271E080E0BB
:1054900090E00E94D35286E494E00E947D5B83E01A
:1054A00090E09093071680930616812C912C54015E
:1054B0008091A40782FD32C00E940B538B019C0196
:1054C000081919092A093B0937FD24C0E9966FAF6D
:1054D000E997EA967FAFEA97EB968FAFEB97EC965A
:1054E0009FAFEC970E94B4DE0E94235DE9966FADFA
:1054F000E997EA967FADEA97EB968FADEB97EC963E
:105500009FADEC974B015C01E0ED8E0EE7E09E1E37
:10551000A11CB11C81E00E943CC2CACF81E090E096
:1055200090930716809306160E94235D10922D0813
:1055300010922E0810922F08109230080E94ECCD85
:105540000E9418471092A307CD84DE84EF84F88868
:1055500020E030E048E452E4C701B6010E94D5EBF8
:1055600060938B0670938C0680938D0690938E06C5
:1055700060E070E08AEF95E40E94E5460E94ECCD81
:105580006CE271E080E090E00E94D352C0928B0602
:10559000D0928C06E0928D06F0928E0660E070E06C
:1055A0008AE794E40E94E5460E94ECCD6CE271E04B
:1055B00080E090E00E94D35220E030E048E151E4E6
:1055C000C701B6010E94D5EB60938B0670938C06E1
:1055D00080938D0690938E0660E070E08AEF95E4EC
:1055E0000E94E5460E94ECCD6CE271E080E090E024
:1055F0000E94D35283E090E09093071680930616A2
:105600008091A40782FD32C00E940B538B019C0144
:10561000081919092A093B0937FD24C0E9966FAF1B
:10562000E997EA967FAFEA97EB968FAFEB97EC9608
:105630009FAFEC970E94B4DE0E94235DE9966FADA8
:10564000E997EA967FADEA97EB968FADEB97EC96EC
:105650009FADEC974B015C01F0ED8F0EF7E09F1EC4
:10566000A11CB11C81E00E943CC2CACF80918B0674
:1056700090918C06A0918D06B0918E0680932D0896
:1056800090932E08A0932F08B09330080E9422D246
:105690000E94184789819A81AB81BC8180937F06E3
:1056A00090938006A0938106B09382068D819E819F
:1056B000AF81B8858093830690938406A093850676
:1056C000B093860660E070E08AEF95E40E94E546BC
:1056D00089859A85AB85BC858093870690938806DB
:1056E000A0938906B0938A0660E070E08AEF95E4A3
:1056F0000E94E54626E636E646E65FE3C701B601C8
:105700000E94D5EB60938B0670938C0680938D0678
:1057100090938E060E9418470E94ECCD1092A60628
:1057200081E090E090930602809305020E94ECCD08
:1057300060E083E494E00E94675B0E94925B5EC13C
:105740000E94ECCD8091210890912208A09123081D
:10575000B09124088093960690939706A09398069C
:10576000B09399068091250890912608A09127086A
:10577000B091280880939A0690939B06A0939C066C
:10578000B0939D068091290890912A08A0912B083A
:10579000B0912C0880939E0690939F06A093A0063C
:1057A000B093A10660912D0870912E0880912F086A
:1057B000909130086093A2067093A3068093A4068C
:1057C0009093A50620E030E040E751E40E94D5EB3D
:1057D00060938B0670938C0680938D0690938E0653
:1057E00060E070E48CE995E40E94E5460E94ECCD0F
:1057F00080E090E0A8E4B3E480937F069093800675
:10580000A0938106B093820680E090E0A0E2B1E42C
:105810008093830690938406A0938506B0938606B2
:1058200060E070E48CE995E40E94E5460E94ECCDCE
:1058300020E030E040E251E460919E0670919F06C6
:105840008091A0069091A1060E94D6EB60938706F6
:10585000709388068093890690938A0660E070E4CE
:105860008CE995E40E94E5460E94ECCD80917F068C
:1058700090918006A0918106B091820680932108C4
:1058800090932208A0932308B09324088091830664
:1058900090918406A0918506B09186068093250894
:1058A00090932608A0932708B09328088091870634
:1058B00090918806A0918906B0918A068093290864
:1058C00090932A08A0932B08B0932C0880918B0604
:1058D00090918C06A0918D06B0918E0680932D0834
:1058E00090932E08A0932F08B09330080E94ECCD1F
:1058F00085C0602F002371F1E6E8F3E184918823ED
:1059000041F09091C00095FFFCCF8093C600319686
:10591000F5CF8091C00085FFFCCF84E58093C60061
:1059200070E080E090E04AE00E94CE72E2E0F4E0B5
:105930008191882339F09091C00095FFFCCF80932E
:10594000C600F6CF8091C00085FFFCCF8AE080932F
:10595000C60054C01092081686E40E946D47882342
:1059600099F00E9498476B017C0120E030E0A9018A
:105970000E94FCED181644F4C0920102D09202027B
:10598000E0920302F0920402E6E8F3E184918823B6
:1059900041F09091C00095FFFCCF8093C6003196F6
:1059A000F5CFE3E1F4E08191882339F09091C000D4
:1059B00095FFFCCF8093C600F6CF60E070E0CB018E
:1059C0000E9443738091C00085FFFCCF8AE08093E2
:1059D000C60014C010E013C00E948047AC01990FAC
:1059E000660B770B4093DB0F5093DC0F6093DD0F5A
:1059F0007093DE0F8AE29FE00E941F9511E0A09055
:105A00000502B090060221E0A216B10409F068C0B8
:105A1000C0905D16D0905E161C141D040CF060C082
:105A2000E0909F16F090A016C701880F991F880F6D
:105A3000991FDC01A15AB94E4D014D905D906D90BA
:105A40007C9020E030E0A901C301B2010E94BBF3C9
:105A5000882389F1A30192016091290870912A0895
:105A600080912B0890912C080E94FCED87FD38C096
:105A70001092060210920502B1E0CB1AD108D09222
:105A80005E16C0925D16F40110821182128213829A
:105A9000C701019660E170E00E94BAEB9093A016F6
:105AA00080939F168FE894E090933208809331089A
:105AB0000E94584815C0F1E0CF1AD108D0925E1666
:105AC000C0925D16C701019660E170E00E94BAEBDA
:105AD0009093A01680939F16B0920602A0920502A2
